:100000000C9462000C948A000C948A000C948A0070
:100010000C948A000C948A000C948A000C948A0038
:100020000C948A000C948A000C948A000C948A0028
:100030000C948A000C948A000C948A000C948A0018
:100040000C9428040C948A000C948A000C948A0066
:100050000C948A000C948A000C948A000C948A00F8
:100060000C9472040C948A00000000002400270005
:100070002A0000000000250028002B0000000000DE
:1000800023002600290004040404040404040202DA
:100090000202020203030303030301020408102007
:1000A0004080010204081020010204081020000012
:1000B0000008000201000003040700000000000027
:1000C0000000910511241FBECFEFD8E0DEBFCDBFE9
:1000D00011E0A0E0B1E0E8EEFDE002C005900D9275
:1000E000A635B107D9F722E0A6E5B1E001C01D921F
:1000F000A133B207E1F710E0C2E6D0E004C02197D7
:10010000FE010E94EC06C136D107C9F70E94B10575
:100110000C94F2060C94000008950895AF92BF92DB
:10012000CF92DF92EF92FF920F931F93CF93DF93C3
:100130006C017B018B01040F151FEB015E01AE18F2
:10014000BF08C017D10759F06991D601ED91FC9114
:100150000190F081E02DC6010995892B79F7C50141
:10016000DF91CF911F910F91FF90EF90DF90CF9093
:10017000BF90AF900895833081F028F4813099F0DA
:100180008230A9F008958730A9F08830C9F0843012
:10019000B1F4809180008F7D03C0809180008F77C3
:1001A00080938000089584B58F7784BD089584B5C9
:1001B0008F7DFBCF8091B0008F778093B000089542
:1001C0008091B0008F7DF9CF1F93CF93DF93282FBD
:1001D00030E0F901E255FF4F8491F901E656FF4FF7
:1001E000D491F901EA57FF4FC491CC23A9F0162FFF
:1001F00081110E94BB00EC2FF0E0EE0FFF1FEE58C4
:10020000FF4FA591B4918FB7F894EC91111108C0EC
:10021000D095DE23DC938FBFDF91CF911F9108959E
:10022000DE2BF8CFCF93DF9390E0FC01E656FF4F33
:1002300024918A579F4FFC0184918823D1F090E04C
:10024000880F991FFC01E859FF4FA591B491FC015B
:10025000EE58FF4FC591D49161110EC09FB7F8942D
:100260008C91E22FE0958E238C932881E223E88302
:100270009FBFDF91CF9108958FB7F894EC91E22B57
:10028000EC938FBFF6CF3FB7F89480910D02909119
:100290000E02A0910F02B091100226B5A89B05C0D6
:1002A0002F3F19F00196A11DB11D3FBFBA2FA92FF5
:1002B000982F8827BC01CD01620F711D811D911DF2
:1002C00042E0660F771F881F991F4A95D1F708955E
:1002D0008F929F92AF92BF92CF92DF92EF92FF9256
:1002E0004B015C010E9443016B017C010E944301B0
:1002F0006C197D098E099F09683E7340810591053F
:10030000A8F321E0821A9108A108B10888EEC80E6E
:1003100083E0D81EE11CF11C81149104A104B104F6
:1003200029F7FF90EF90DF90CF90BF90AF909F9014
:100330008F900895089520919701260F3327331F3A
:1003400021323105ECF42091E001FC0190E080E0E5
:10035000243069F082E00895A09197012191AC01C9
:1003600049585E4FA40FB52FB11D2C9301968617E7
:1003700098F380919701680F6093970180E008954A
:1003800081E008951092E00181E08093DF011092F6
:10039000BA0161E082E10E94E40061E083E10E9431
:1003A000E400E9EBF0E080818E7F808380818D7FA7
:1003B000808388E48093B80085E48093BC0008952E
:1003C000CF93DF9391E0909376018823B9F0C091A9
:1003D000B800D091BA008091BC008A7B8093BC00A9
:1003E00060E082E10E94E40060E083E10E94E400BA
:1003F0000E94C201D093BA00C093B800DF91CF91A0
:1004000008950895E091180280911702E81730F4DA
:10041000F0E0EA5AFE4F808190E008958FEF9FEF61
:10042000089590911802809117022FEF3FEF9817CF
:1004300048F4E92FF0E0EA5AFE4F208130E09F5F58
:1004400090931802C90108958091170290911802A3
:10045000891B990B0895CF92DF92EF92FF920F9331
:100460001F93CF93DF937C01CB018A012091E6019A
:10047000222389F0EB016B01C40ED51ECC15DD05DE
:1004800069F06991D701ED91FC910190F081E02D27
:10049000C7010995F3CF642F0E949B01C801DF912A
:1004A000CF911F910F91FF90EF90DF90CF90089523
:1004B000CF93DF931F92CDB7DEB769832091E6011A
:1004C0002223F9F020911502203258F021E030E08B
:1004D000FC013383228390E080E00F90DF91CF9185
:1004E000089580911602E82FF0E0E951FE4F9981BE
:1004F00090838F5F809316028093150281E090E0D5
:10050000ECCF61E0CE0101960E949B01F7CFCF9224
:10051000DF92EF92FF920F931F93CF93DF93FC0133
:10052000C48121E02093E601C093070210921602D5
:10053000109215028385682B89E192E00E9458028F
:10054000D0911502D13208F092C00E9443016B0194
:100550007C018091E001811165C082E08093E0011F
:1005600081E08093DF018FEF8093DE011092DD0147
:10057000D093DC01A7EEB1E0ECEBF1E080E0D81322
:1005800085C01092BB018091BB01CC0FC82BC093DA
:10059000BB018091BA01813009F07CC01092BA0190
:1005A0000E9443016B017C018091BB018093BB00E1
:1005B0008091E2019091E301A091E401B091E50105
:1005C000892B8A2B8B2B99F00E9443010091E20129
:1005D0001091E3012091E4013091E5016C197D094E
:1005E0008E099F090617170728073907E0F1809140
:1005F000BC0083FDD9CF85EC8093BC000E944301F1
:100600006B017C018091E001823009F445C080914A
:10061000DE018F3F61F18091DE01803241F18091F6
:10062000DE0125C08091E2019091E301A091E401F7
:10063000B091E501892B8A2B8B2B09F48ACF0E947C
:1006400043010091E2011091E3012091E401309116
:10065000E5016C197D098E099F0906171707280700
:10066000390708F076CF8091E1010E94E0011092F5
:100670001602109215021092E601DF91CF911F91A0
:100680000F91FF90EF90DF90CF9008959D919193FF
:100690008F5F75CF85EEB0CF8091E2019091E3013D
:1006A000A091E401B091E501892B8A2B8B2B09F4F1
:1006B000A9CF0E9443010091E2011091E301209132
:1006C000E4013091E5016C197D098E099F09061737
:1006D00017072807390708F095CFC5CF90E080E0CD
:1006E0000895FC0101900020E9F73197AF01481B04
:1006F000590BBC0185E292E00C948E000F931F937E
:10070000CF938C01C62F0E9487026C2F6460C801B2
:100710000E9487026C2F6B7FC8010E94870283ECC6
:1007200090E00197F1F7CF911F910F9108950F93EA
:100730001F93CF93DF938C01D62FC42F607F642B40
:100740000E947E0380E1D89FB00111246C2BC80168
:10075000DF91CF911F910F910C947E0340E061E0F7
:1007600085E292E00E9497038BE39FE10197F1F706
:100770000895CF93DF93CDB7DEB728970FB6F894DF
:10078000DEBF0FBECDBF98E0E0E0F1E0DE011196E4
:1007900001900D929A95E1F790912D02981708F427
:1007A0008FEF90E0880F991F21E030E02C0F3D1F64
:1007B000820F931FFC016081606840E085E292E057
:1007C00028960FB6F894DEBF0FBECDBFDF91CF9154
:1007D0000C94970341E00E94970381E090E0089514
:1007E00085ED8093BC008091E2019091E301A0919E
:1007F000E401B091E5010796A11DB11D23E0B69576
:10080000A795979587952A95D1F72091BC0024FD4F
:1008100003C01092E00108954091E2015091E3017C
:100820006091E4017091E501452B462B472B69F35C
:100830000097A105B10541F025E32A95F1F70000E5
:100840000197A109B109E1CF8091E1010C94E00188
:100850001F920F920FB60F9211242F933F938F93F5
:100860009F93AF93BF938091090290910A02A09148
:100870000B02B0910C023091080223E0230F2D37B8
:1008800058F50196A11DB11D20930802809309021D
:1008900090930A02A0930B02B0930C0280910D0278
:1008A00090910E02A0910F02B09110020196A11D2D
:1008B000B11D80930D0290930E02A0930F02B0938E
:1008C0001002BF91AF919F918F913F912F910F9007
:1008D0000FBE0F901F90189526E8230F0296A11DBA
:1008E000B11DD2CF1F920F920FB60F9211242F93EA
:1008F0003F934F935F936F937F938F939F93AF93A8
:10090000BF93EF93FF938091B900887F803609F4FD
:100910004AC0F0F5883209F4A7C018F5803109F40F
:100920009BC0B8F4882309F4F9C0883009F494C056
:10093000FF91EF91BF91AF919F918F917F916F91B7
:100940005F914F913F912F910F900FBE0F901F908D
:100950001895883109F488C0803251F78093DE0100
:1009600014C0803409F49DC040F48033B9F3883357
:10097000F9F68093DE0185ECB0C0803509F485C0BE
:10098000883509F496C0883499F60E94F003D0CFD8
:10099000883909F48CC038F5883729F050F4883646
:1009A00011F0803729F683E08093E0011092B901BD
:1009B00057C0883809F47BC0803919F0803809F0B5
:1009C000B7CF8091B901803208F071C0E091B901D0
:1009D00081E08E0F8093B9018091BB00F0E0E75673
:1009E000FE4F80833DC0803B39F0E0F4803A09F44B
:1009F00079C0883A09F09CCF84E08093E00110929E
:100A0000980110929701E0911302F0911402099558
:100A10008091970181110FC081E08093970110921E
:100A2000770109C0803C09F4A6CF883C09F4A3CF24
:100A3000883B09F07DCFE091980181E08E0F809393
:100A40009801F0E0E958FE4F80818093BB009091BF
:100A500098018091970129C08091BB018093BB00D0
:100A600085EC8093BC0064CF9091DD018091DC0126
:100A7000981758F5E091DD0181E08E0F8093DD013C
:100A8000F0E0E454FE4F8081E9CFE091DD0181E0A8
:100A90008E0F8093DD018091BB00F0E0E454FE4FA7
:100AA00080839091DD018091DC019817C8F285E880
:100AB000D8CFE091DD0181E08E0F8093DD01809140
:100AC000BB00F0E0E454FE4F80838091DF01811190
:100AD0005CCF81E08093BA0184EA8093BC001092DD
:100AE000E00126CF85EC8093BC001092E00180915C
:100AF000B901803230F4E091B901F0E0E756FE4FE1
:100B000010826091B90170E0E0911102F09112023F
:100B100089E991E009951092B9010ACF1092DE019E
:100B200034CFE9E1F2E01382128288EE93E0A0E094
:100B3000B0E084839583A683B7838CE091E09183B2
:100B40008083E5E2F2E0138212828EE191E09183EC
:100B5000808387E2848380E1818782E082871386B5
:100B60000895789484B5826084BD84B5816084BD25
:100B700085B5826085BD85B5816085BD80916E003B
:100B8000816080936E00109281008091810082606C
:100B900080938100809181008160809381008091A9
:100BA00080008160809380008091B1008460809398
:100BB000B1008091B00081608093B00080917A0094
:100BC000846080937A0080917A00826080937A00BA
:100BD00080917A00816080937A0080917A008068A9
:100BE00080937A001092C10010921802109217029E
:100BF00010921602109215020E94C2018CE890E039
:100C000090931402809313028DE890E09093120267
:100C10008093110210922A0280912F02823018F0E4
:100C200098E090932A0280932D0262E370E080E0C6
:100C300090E00E9468016091300285E292E00E949B
:100C4000870268EE73E080E090E00E94680160E354
:100C500085E292E00E947E03CBE4D6E4CE010197C8
:100C6000F1F760E385E292E00E947E032197F1F7BD
:100C700060E385E292E00E947E0383E592E00197C3
:100C8000F1F760E285E292E00E947E0360912A0221
:100C9000606240E085E292E00E94970384E08093E6
:100CA0002B0240E06CE085E292E00E9497030E94F4
:100CB000AE0382E080932C0240E066E085E292E0A1
:100CC0000E94970340E062E085E292E00E94970371
:100CD0008BE39FE10197F1F788E08093300260E0B9
:100CE00085E292E00E94870260E080E00E941201AB
:100CF00061E08DE00E94120161E08CE00E9412012F
:100D000080E00E94B90386E291E00E94710381E0D5
:100D10000E94B9038DE291E00E94710368EE73E0D6
:100D200080E090E00E9468010E94AE03CEEAD0E02D
:100D30000AE910E096E8E92E90E0F92E20E0C22EB4
:100D400020E0D22EFE018491F801A490F701B49026
:100D5000BB2099F181110E94BB00EB2DF0E0EE0F5A
:100D6000FF1FE458FF4FA591B4918C91A82229F15F
:100D700080E00E94B9038DE391E00E94710381E05D
:100D80000E94B90386E491E00E94710361E08DE066
:100D90000E94E40061E08CE00E94E40068EE73E0F1
:100DA00080E090E00E9468010E94AE03C114D1046B
:100DB00009F4C8CF0E940000C5CF0E94AE0380E0B6
:100DC0000E94B9038FE491E00E94710360E08DE01E
:100DD0000E94E40060E0DFCFEE0FFF1F0590F4916A
:080DE000E02D0994F894FFCF07
:100DE80000004000140054000000000058022B02CC
:100DF8006E03010224021102020200000000EA034D
:100E08008E006E039A01446179206C610063616D04
:100E1800206269656E206B68692067610043616EB6
:100E2800682062616F00726F207269206761002E0E
:060E38002E2E2E2E2E00CE
:00000001FF
