:020000040000FA
:100000000C945D000C9485000C9485000C94850084
:100010000C9485000C9485000C9485000C9485004C
:100020000C9485000C9485000C9485000C9485003C
:100030000C9485000C9485000C9485000C9485002C
:100040000C9419050C9485000C94E7040C94C104DD
:100050000C9485000C9485000C9485000C9485000C
:100060000C9463050C948500000000080002010058
:100070000003040700000000000000000000000072
:10008000250028002B0000000000240027002A0083
:10009000040404040404040402020202020203032E
:1000A0000303030301020408102040800102040836
:1000B0001020010204081020820611241FBECFEF79
:1000C000D8E0DEBFCDBF11E0A0E0B1E0EAE8F2E1A8
:1000D00002C005900D92A43CB107D9F723E0A4EC2F
:1000E000B1E001C01D92AC33B207E1F710E0CDE5FD
:1000F000D0E004C02197FE010E943D09CC35D10714
:10010000C9F70E94CA060C9443090C940000089594
:100110000895AF92BF92CF92DF92EF92FF920F932A
:100120001F93CF93DF936C017B018B01040F151F8D
:10013000EB015E01AE18BF08C017D10759F06991F5
:10014000D601ED91FC910190F081E02DC601099559
:10015000892B79F7C501DF91CF911F910F91FF9006
:10016000EF90DF90CF90BF90AF900895FC01538D3A
:10017000448D252F30E0842F90E0821B930B541781
:1001800010F0CF96089501970895FC01918D828D0E
:10019000981761F0A28DAE0FBF2FB11D5D968C91A7
:1001A000928D9F5F9F73928F90E008958FEF9FEFE6
:1001B0000895FC01918D828D981731F0828DE80FA2
:1001C000F11D858D90E008958FEF9FEF0895FC015C
:1001D000918D228D892F90E0805C9F4F821B910929
:1001E0008F739927089587E892E00E94E70021E045
:1001F000892B09F420E0822F089580E090E0892B7C
:1002000029F00E94F30081110C9400000895FC0174
:10021000A48DA80FB92FB11DA35ABF4F2C91848D67
:1002200090E001968F739927848FA689B7892C93C4
:10023000A089B1898C91837080648C93938D848D17
:10024000981306C00288F389E02D80818F7D80831A
:100250000895EF92FF920F931F93CF93DF93EC01DA
:1002600081E0888F9B8D8C8D98131AC0E889F9895D
:10027000808185FF15C09FB7F894EE89FF89608360
:10028000E889F98980818370806480839FBF81E0E1
:1002900090E0DF91CF911F910F91FF90EF90089523
:1002A000F62E0B8D10E00F5F1F4F0F731127E02EFE
:1002B0008C8D8E110CC00FB607FCFACFE889F98936
:1002C000808185FFF5CFCE010E940701F1CFEB8D34
:1002D000EC0FFD2FF11DE35AFF4FF0829FB7F8940A
:1002E0000B8FEA89FB8980818062CFCFCF93DF9328
:1002F000EC01888D8823B9F0AA89BB89E889F9893E
:100300008C9185FD03C0808186FD0DC00FB607FC72
:10031000F7CF8C9185FFF2CF808185FFEDCFCE01A5
:100320000E940701E9CFDF91CF91089590E0FC0191
:10033000E859FF4F2491FC01EC55FF4F3491FC012B
:10034000E057FF4FE491EE23C9F0222339F0233028
:1003500001F1A8F4213019F1223029F1F0E0EE0F7B
:10036000FF1FE458FF4FA591B4918FB7F894EC911B
:10037000611126C030953E233C938FBF08952730EE
:10038000A9F02830C9F0243049F7809180008F7D92
:1003900003C0809180008F7780938000DFCF84B589
:1003A0008F7784BDDBCF84B58F7DFBCF8091B0008C
:1003B0008F778093B000D2CF8091B0008F7DF9CF3E
:1003C0003E2BDACF3FB7F89480917B0290917C026C
:1003D000A0917D02B0917E0226B5A89B05C02F3F5B
:1003E00019F00196A11DB11D3FBFBA2FA92F982F5B
:1003F0008827BC01CD01620F711D811D911D42E056
:10040000660F771F881F991F4A95D1F708958F921D
:100410009F92AF92BF92CF92DF92EF92FF924B01E9
:100420005C010E94E2016B017C010E94E2016C19F7
:100430007D098E099F09683E734081059105A8F3E7
:1004400021E0821A9108A108B10888EEC80E83E065
:10045000D81EE11CF11C81149104A104B10429F7F8
:10046000FF90EF90DF90CF90BF90AF909F908F90D4
:10047000089520912C02260F3327331F2132310596
:10048000ECF420915002FC0190E080E0243069F00F
:1004900082E00895A0912C022191AC01445F5D4F50
:1004A000A40FB52FB11D2C930196861798F3809158
:1004B0002C02680F60932C0280E0089581E008957B
:1004C0001092500281E0809352021092510261E03A
:1004D00082E10E94960161E083E10E949601E9EBCE
:1004E000F0E080818E7F808380818D7F808388E4AF
:1004F0008093B80085E48093BC000895CF93DF9388
:1005000091E090930B028823B9F0C091B800D0918C
:10051000BA008091BC008A7B8093BC0060E082E1DD
:100520000E94960160E083E10E9496010E946002B1
:10053000D093BA00C093B800DF91CF910895089589
:10054000E091860280918502E81730F4F0E0EA51EC
:10055000FE4F808190E008958FEF9FEF0895909176
:100560008602809185022FEF3FEF981748F4E92F1C
:10057000F0E0EA51FE4F208130E09F5F90938602C9
:10058000C90108958091850290918602891B990B7B
:100590000895CF92DF92EF92FF920F931F93CF9324
:1005A000DF937C01CB018A012091E501222389F0B0
:1005B000EB016B01C40ED51ECC15DD0569F0699108
:1005C000D701ED91FC910190F081E02DC7010995D3
:1005D000F3CF642F0E943902C801DF91CF911F91A0
:1005E0000F91FF90EF90DF90CF900895CF93DF931E
:1005F0001F92CDB7DEB769832091E5012223F9F080
:1006000020918302203258F021E030E0FC01338356
:10061000228390E080E00F90DF91CF910895809148
:100620008402E82FF0E0EB53FE4F998190838F5FB7
:10063000809384028093830281E090E0ECCF61E0BC
:10064000CE0101960E943902F7CFCF92DF92EF924E
:10065000FF920F931F93CF93DF93FC01C48121E09E
:100660002093E501C093C40110928402109283028A
:100670008385682B84E293E00E94F602D091830286
:10068000D13208F092C00E94E2016B017C0180919E
:100690005002811165C082E08093500281E0809316
:1006A00052028FEF80934F0210927402D093730224
:1006B000A5ECB1E0E3E5F2E080E0D81385C010924C
:1006C000750280917502CC0FC82BC0937502809182
:1006D0005102813009F07CC0109251020E94E20167
:1006E0006B017C01809175028093BB0080910702B1
:1006F00090910802A0910902B0910A02892B8A2BDD
:100700008B2B99F00E94E2010091070210910802E0
:100710002091090230910A026C197D098E099F0906
:100720000617170728073907E0F18091BC0083FD01
:10073000D9CF85EC8093BC000E94E2016B017C0163
:1007400080915002823009F445C080914F028F3F62
:1007500061F180914F02803241F180914F0225C0BA
:100760008091070290910802A0910902B0910A02BB
:10077000892B8A2B8B2B09F48ACF0E94E2010091EE
:100780000702109108022091090230910A026C19A7
:100790007D098E099F09061717072807390708F0F2
:1007A00076CF809106020E947E02109284021092FF
:1007B00083021092E501DF91CF911F910F91FF907D
:1007C000EF90DF90CF9008959D9191938F5F75CFBB
:1007D00085EEB0CF8091070290910802A0910902A6
:1007E000B0910A02892B8A2B8B2B09F4A9CF0E9486
:1007F000E201009107021091080220910902309154
:100800000A026C197D098E099F0906171707280728
:10081000390708F095CFC5CF089590E080E008959E
:100820000F931F93CF938C01C62F0E9425036C2F2B
:100830006460C8010E9425036C2F6B7FC8010E9471
:10084000250383EC90E00197F1F7CF911F910F9171
:1008500008950F931F93CF93DF938C01D62FC42F4E
:10086000607F642B0E94100480E1D89FB0011124A6
:100870006C2BC801DF91CF911F910F910C94100444
:10088000CF93DF93CDB7DEB728970FB6F894DEBFCE
:100890000FBECDBF98E0E0E0F1E0DE0111960190DF
:1008A0000D929A95E1F790913803961710F46FEF37
:1008B000690F262F30E0220F331F41E050E04C0F2C
:1008C0005D1F240F351FF9016081680F606840E0EB
:1008D00080E393E028960FB6F894DEBF0FBECDBF3D
:1008E000DF91CF910C94290441E00E94290481E01A
:1008F00090E00895FB0101900020E9F73197AF01E6
:10090000461B570BDC01ED91FC910280F381E02D39
:10091000099485ED8093BC008091070290910802B4
:10092000A0910902B0910A020796A11DB11D23E012
:10093000B695A795979587952A95D1F72091BC00F4
:1009400024FD03C010925002089540910702509177
:1009500008026091090270910A02452B462B472B31
:1009600069F30097A105B10541F025E32A95F1F758
:1009700000000197A109B109E1CF809106020C9412
:100980007E021F920F920FB60F9211242F933F9366
:100990004F935F936F937F938F939F93AF93BF9387
:1009A000EF93FF9387E892E00E940701FF91EF9198
:1009B000BF91AF919F918F917F916F915F914F9177
:1009C0003F912F910F900FBE0F901F9018951F927F
:1009D0000F920FB60F9211242F938F939F93EF9343
:1009E000FF93E0919702F09198028081E0919D023F
:1009F000F0919E0282FD1BC090818091A0028F5FCA
:100A00008F732091A102821741F0E091A002F0E0E3
:100A1000E957FD4F958F8093A002FF91EF919F9131
:100A20008F912F910F900FBE0F901F90189580817E
:100A3000F4CF1F920F920FB60F9211242F933F9372
:100A40008F939F93AF93BF93809177029091780299
:100A5000A0917902B0917A023091760223E0230FBF
:100A60002D3758F50196A11DB11D20937602809374
:100A7000770290937802A0937902B0937A028091E2
:100A80007B0290917C02A0917D02B0917E02019642
:100A9000A11DB11D80937B0290937C02A0937D02E7
:100AA000B0937E02BF91AF919F918F913F912F9113
:100AB0000F900FBE0F901F90189526E8230F0296F7
:100AC000A11DB11DD2CF1F920F920FB60F9211240C
:100AD0002F933F934F935F936F937F938F939F9346
:100AE000AF93BF93EF93FF938091B900887F8036D7
:100AF00009F44AC0F0F5883209F4A7C018F580312E
:100B000009F49BC0B8F4882309F4F9C0883009F4CB
:100B100094C0FF91EF91BF91AF919F918F917F9181
:100B20006F915F914F913F912F910F900FBE0F905A
:100B30001F901895883109F488C0803251F780934E
:100B40004F0214C0803409F49DC040F48033B9F3DF
:100B50008833F9F680934F0285ECB0C0803509F4F4
:100B600085C0883509F496C0883499F60E948904B6
:100B7000D0CF883909F48CC038F5883729F050F483
:100B8000883611F0803729F683E080935002109266
:100B90004E0257C0883809F47BC0803919F080387C
:100BA00009F0B7CF80914E02803208F071C0E09119
:100BB0004E0281E08E0F80934E028091BB00F0E0E8
:100BC000E25DFD4F80833DC0803B39F0E0F4803A28
:100BD00009F479C0883A09F09CCF84E080935002F0
:100BE00010922D0210922C02E0918102F09182026B
:100BF000099580912C0281110FC081E080932C0215
:100C000010920C0209C0803C09F4A6CF883C09F47C
:100C1000A3CF883B09F07DCFE0912D0281E08E0FBC
:100C200080932D02F0E0E45FFD4F80818093BB0054
:100C300090912D0280912C0229C0809175028093A1
:100C4000BB0085EC8093BC0064CF909174028091CE
:100C50007302981758F5E091740281E08E0F80932B
:100C60007402F0E0ED5AFD4F8081E9CFE09174020B
:100C700081E08E0F809374028091BB00F0E0ED5A0A
:100C8000FD4F808390917402809173029817C8F28F
:100C900085E8D8CFE091740281E08E0F80937402D2
:100CA0008091BB00F0E0ED5AFD4F808380915202AD
:100CB00081115CCF81E08093510284EA8093BC0073
:100CC0001092500226CF85EC8093BC001092500207
:100CD00080914E02803230F4E0914E02F0E0E25D0D
:100CE000FD4F108260914E0270E0E0917F02F09122
:100CF00080028EE292E0099510924E020ACF109285
:100D00004F0234CFE7E8F2E01382128288EE93E0DC
:100D1000A0E0B0E084839583A683B7832CE031E024
:100D20003183208325EC30E03587248724EC30E0C4
:100D30003787268720EC30E0318B208B21EC30E0A8
:100D4000338B228B22EC30E0358B248B26EC30E089
:100D5000378B268B118E128E138E148EE4E2F3E005
:100D60001382128284839583A683B7838EE191E0F8
:100D700091838083E0E3F3E01382128280E391E0C9
:100D80009183808387E2848384E1818784E0828702
:100D900013860895CF93DF93CDB7DEB7A1970FB633
:100DA000F894DEBF0FBECDBF789484B5826084BD59
:100DB00084B5816084BD85B5826085BD85B581605F
:100DC00085BD80916E00816080936E0010928100DD
:100DD0008091810082608093810080918100816098
:100DE0008093810080918000816080938000809159
:100DF000B10084608093B1008091B00081608093E5
:100E0000B00080917A00846080937A0080917A00AB
:100E1000826080937A0080917A00816080937A006A
:100E200080917A00806880937A001092C100E091EE
:100E30009702F091980282E08083E0919302F09112
:100E400094021082E0919502F09196028FEC8083DB
:100E500010929F02E0919B02F0919C0286E08083B9
:100E6000E0919902F0919A02808180618083E09103
:100E70009902F0919A02808188608083E0919902C2
:100E8000F0919A02808180688083E0919902F091CC
:100E90009A0280818F7D8083109286021092850253
:100EA00010928402109283020E94600287E890E010
:100EB000909382028093810288E890E09093800270
:100EC00080937F021092350380913A03823018F0AC
:100ED00098E0909335038093380362E370E080E0FC
:100EE00090E00E94070260913B0380E393E00E9440
:100EF000250368EE73E080E090E00E94070260E363
:100F000080E393E00E9410040BE416E4C80101970B
:100F1000F1F760E380E393E00E941004C8010197B9
:100F2000F1F760E380E393E00E94100483E592E030
:100F30000197F1F760E280E393E00E941004609172
:100F40003503606240E080E393E00E94290484E07E
:100F50008093360340E06CE080E393E00E94290434
:100F600040E061E080E393E00E9429040BE31FE18D
:100F7000C8010197F1F782E08093370340E066E013
:100F800080E393E00E94290440E062E080E393E084
:100F90000E942904C8010197F1F7E3EBF0E02491E6
:100FA000EFE9F0E084918823C9F090E0880F991F61
:100FB000FC01EA57FF4F45915491FC01E458FF4F63
:100FC000A591B4919FB7F894FA018081209582236E
:100FD00080838C91E22FE823EC939FBFE1EBF0E05C
:100FE0002491EDE9F0E08491882399F090E0880F56
:100FF000991FFC01EA57FF4FA591B491FC01E458F9
:10100000FF4F859194918FB7F894EC91E22BEC937C
:101010008FBF60E080E00E94400468E371E080E3FD
:1010200093E00E947A0461E080E00E9440046DE455
:1010300071E080E393E00E947A0481E4382E9AE024
:10104000C92ED12CE12CF12C20E0822E20E0922E12
:1010500030927C0080917A00806480937A00809145
:101060007A0086FDFCCF80917800A0917900BA2F9C
:10107000A82F24E630E00E9436092FEF33E040E04D
:1010800050E00E94E60829013A01590161E08BE035
:101090000E94400477FE5DC041E06DE280E393E092
:1010A0000E94290422273327A9012419350946095A
:1010B000570919A28E010F5D1F4FCA01B901A7017F
:1010C00096010E940509605DF80162938F01211568
:1010D00031054105510589F70115110529F0B801C0
:1010E00080E393E00E947A04F4E6AF16B1040CF4B6
:1010F00046C06DE571E087E892E00E947A046FE6F1
:1011000071E087E892E00E947A0462E080E00E9449
:10111000400462E771E080E393E00E947A0463E0B8
:1011200080E00E94400467E871E080E393E00E9461
:101130007A0460E08DE00E9496018114910409F424
:1011400087CF0E94F300882309F482CF0E94000019
:101150007FCFA301920119A28E010F5D1F4FCA011B
:10116000B901A70196010E940509605DF80162932B
:101170008F01211531054105510589F7ADCF61E09A
:101180008DE00E94400441E060E280E393E00E9431
:10119000290487E4A816B1040CF0ABCF6BE971E029
:1011A00087E892E00E947A046FE671E087E892E0B7
:1011B0000E947A0462E080E00E9440046EEA71E0DE
:1011C00080E393E00E947A0461E0B4CF052E97FBA0
:1011D0001EF400940E94FD0857FD07D00E940509E7
:1011E00007FC03D04EF40C94FD08509540953095C3
:1011F00021953F4F4F4F5F4F089590958095709583
:1012000061957F4F8F4F9F4F0895A1E21A2EAA1B21
:10121000BB1BFD010DC0AA1FBB1FEE1FFF1FA217A6
:10122000B307E407F50720F0A21BB30BE40BF50BA3
:10123000661F771F881F991F1A9469F7609570952C
:10124000809590959B01AC01BD01CF010895A29FAF
:10125000B001B39FC001A39F700D811D1124911D8A
:10126000B29F700D811D1124911D08950E942709C0
:10127000B7FF0895821B930B0895EE0FFF1F059093
:10128000F491E02D0994F894FFCF00004000140081
:1012900054000000000029018900B6007601E70033
:1012A000C500D90000000000F602C9020D049F022B
:1012B000C202AF02A00200000000740489000D0405
:1012C0000C042D2D2D2D56554F4E20545520444F96
:1012D0004E472D2D2D2D00446F20616D20646174CB
:1012E0003A202020202500446F20616D2062696E25
:1012F00068207468756F6E67000D0A00202020203A
:10130000446F20616D20646174206F6B2020202069
:1013100000202020202020202020202020202020ED
:101320002020202000446174206B686F207468695D
:101330006575206E756F630020446174206B686F63
:0E134000207468696575206E756F632000006B
:107E0000112484B714BE81FFF0D085E080938100F7
:107E100082E08093C00088E18093C10086E0809377
:107E2000C20080E18093C4008EE0C9D0259A86E02C
:107E300020E33CEF91E0309385002093840096BBD3
:107E4000B09BFECF1D9AA8958150A9F7CC24DD24C4
:107E500088248394B5E0AB2EA1E19A2EF3E0BF2EE7
:107E6000A2D0813461F49FD0082FAFD0023811F036
:107E7000013811F484E001C083E08DD089C08234E0
:107E800011F484E103C0853419F485E0A6D080C0E4
:107E9000853579F488D0E82EFF2485D0082F10E0AE
:107EA000102F00270E291F29000F111F8ED06801E7
:107EB0006FC0863521F484E090D080E0DECF843638
:107EC00009F040C070D06FD0082F6DD080E0C81688
:107ED00080E7D80618F4F601B7BEE895C0E0D1E017
:107EE00062D089930C17E1F7F0E0CF16F0E7DF06D8
:107EF00018F0F601B7BEE89568D007B600FCFDCFD4
:107F0000A601A0E0B1E02C9130E011968C91119780
:107F100090E0982F8827822B932B1296FA010C0160
:107F200087BEE89511244E5F5F4FF1E0A038BF0790
:107F300051F7F601A7BEE89507B600FCFDCF97BE46
:107F4000E89526C08437B1F42ED02DD0F82E2BD052
:107F50003CD0F601EF2C8F010F5F1F4F84911BD097
:107F6000EA94F801C1F70894C11CD11CFA94CF0C13
:107F7000D11C0EC0853739F428D08EE10CD085E9AC
:107F80000AD08FE07ACF813511F488E018D01DD067
:107F900080E101D065CF982F8091C00085FFFCCF94
:107FA0009093C60008958091C00087FFFCCF809118
:107FB000C00084FD01C0A8958091C6000895E0E648
:107FC000F0E098E1908380830895EDDF803219F02E
:107FD00088E0F5DFFFCF84E1DECF1F93182FE3DFCA
:107FE0001150E9F7F2DF1F91089580E0E8DFEE27F6
:047FF000FF270994CA
:027FFE00040479
:00000001FF
