:100000000C9462000C948A000C948A000C948A0070
:100010000C948A000C948A000C948A000C948A0038
:100020000C948A000C948A000C948A000C948A0028
:100030000C948A000C948A000C948A000C948A0018
:100040000C944A060C948A000C9418060C94F20541
:100050000C948A000C948A000C948A000C948A00F8
:100060000C948A000C948A000000000024002700F1
:100070002A0000000000250028002B0000000000DE
:1000800023002600290004040404040404040202DA
:100090000202020203030303030301020408102007
:1000A0004080010204081020010204081020000012
:1000B0000008000201000003040700000000000027
:1000C0000000940611241FBECFEFD8E0DEBFCDBFE5
:1000D00011E0A0E0B1E0ECE3F5E102C005900D9283
:1000E000AA34B107D9F722E0AAE4B1E001C01D9219
:1000F000A531B207E1F710E0C2E6D0E004C02197D5
:10010000FE010E94960AC136D107C9F70E94E8068F
:100110000C949C0A0C940000AF92BF92CF92DF9295
:10012000EF92FF920F931F93CF93DF936C017B01AC
:100130008B01040F151FEB015E01AE18BF08C0173D
:10014000D10759F06991D601ED91FC910190F081B0
:10015000E02DC6010995892B79F7C501DF91CF9173
:100160001F910F91FF90EF90DF90CF90BF90AF90D5
:100170000895FC01538D448D252F30E0842F90E0AD
:10018000821B930B541710F0CF9608950197089592
:10019000FC01918D828D981761F0A28DAE0FBF2F5B
:1001A000B11D5D968C91928D9F5F9F73928F90E0B1
:1001B00008958FEF9FEF0895FC01918D828D981720
:1001C00031F0828DE80FF11D858D90E008958FEF5D
:1001D0009FEF0895FC01918D228D892F90E0805C26
:1001E0009F4F821B91098F739927089583E591E0B2
:1001F0000E94EA0021E0892B09F420E0822F089573
:1002000080E090E0892B29F00E94F60081110C9487
:1002100000000895FC01A48DA80FB92FB11DA35AA9
:10022000BF4F2C91848D90E001968F739927848F16
:10023000A689B7892C93A089B1898C918370806439
:100240008C93938D848D981306C00288F389E02DDA
:1002500080818F7D80830895EF92FF920F931F938B
:10026000CF93DF93EC0181E0888F9B8D8C8D981369
:100270001AC0E889F989808185FF15C09FB7F89475
:10028000EE89FF896083E889F989808183708064C1
:1002900080839FBF81E090E0DF91CF911F910F910C
:1002A000FF90EF900895F62E0B8D10E00F5F1F4F1B
:1002B0000F731127E02E8C8D8E110CC00FB607FC2A
:1002C000FACFE889F989808185FFF5CFCE010E94B8
:1002D0000A01F1CFEB8DEC0FFD2FF11DE35AFF4F1B
:1002E000F0829FB7F8940B8FEA89FB898081806246
:1002F000CFCFCF93DF93EC01888D8823B9F0AA8903
:10030000BB89E889F9898C9185FD03C0808186FDD0
:100310000DC00FB607FCF7CF8C9185FFF2CF80811F
:1003200085FFEDCFCE010E940A01E9CFDF91CF9189
:100330000895833081F028F4813099F08230A9F05B
:1003400008958730A9F08830C9F08430B1F48091E5
:1003500080008F7D03C0809180008F778093800024
:10036000089584B58F7784BD089584B58F7DFBCFC4
:100370008091B0008F778093B00008958091B00095
:100380008F7DF9CFCF93DF93282F30E0F901E2552D
:10039000FF4F8491F901E656FF4FD491F901EA57D6
:1003A000FF4FC491CC23A1F081110E949901EC2F41
:1003B000F0E0EE0FFF1FE458FF4FA591B491EC91D0
:1003C000ED2381E090E009F480E0DF91CF91089582
:1003D00080E090E0FACF1F93CF93DF93282F30E097
:1003E000F901E255FF4F8491F901E656FF4FD49190
:1003F000F901EA57FF4FC491CC23A9F0162F8111C0
:100400000E949901EC2FF0E0EE0FFF1FEE58FF4F16
:10041000A591B4918FB7F894EC91111108C0D095C3
:10042000DE23DC938FBFDF91CF911F910895DE2BE8
:10043000F8CFCF93DF9390E0FC01E656FF4F249175
:100440008A579F4FFC0184918823D1F090E0880F58
:10045000991FFC01E859FF4FA591B491FC01EE589A
:10046000FF4FC591D49161110EC09FB7F8948C9144
:10047000E22FE0958E238C932881E223E8839FBFAF
:10048000DF91CF9108958FB7F894EC91E22BEC9324
:100490008FBFF6CF3FB7F89480914B0190914C01FC
:1004A000A0914D01B0914E0126B5A89B05C02F3FEC
:1004B00019F00196A11DB11D3FBFBA2FA92F982F8A
:1004C0008827BC01CD01620F711D811D911D42E085
:1004D000660F771F881F991F4A95D1F708958F924D
:1004E0009F92AF92BF92CF92DF92EF92FF924B0119
:1004F0005C010E944A026B017C010E944A026C1955
:100500007D098E099F09683E734081059105A8F316
:1005100021E0821A9108A108B10888EEC80E83E094
:10052000D81EE11CF11C81149104A104B10429F727
:10053000FF90EF90DF90CF90BF90AF909F908F9003
:100540000895089590E080E00895EF92FF921F9340
:10055000CF93DF9361E08091F6010E94EB016AEF97
:1005600070E080E090E00E946F022FB7F8948091D5
:100570004F0190915001A0915101B09152012FBFB4
:100580004091F8015091F9016091FA017091FB01DD
:1005900084179507A607B70740F41092F801109248
:1005A000F9011092FA011092FB012091FC01211136
:1005B00018C04091F8015091F9016091FA017091D1
:1005C000FB01841B950BA60BB70B803D9740A10543
:1005D000B10538F481E0DF91CF911F91FF90EF904A
:1005E00008951092FC012FB7F89480914F019091DB
:1005F0005001A0915101B09152012FBF8093F80199
:100600009093F901A093FA01B093FB011092F401C9
:100610001092F3011092F2011092F1011092F00188
:1006200061E08091F6010E94190260E08091F6017C
:100630000E94EB0164E170E080E090E00E946F02B4
:10064000F89461E08091F6010E94EB018BE990E063
:100650000197F1F760E08091F6010E94190210E025
:1006600081E0C0E0D0E0E82EF12C8091F6010E94FC
:10067000C2018E159F0519F4DF5FDF3FB1F780914E
:10068000F6010E94C201DF3FA1F0C43078F0C0FD46
:100690000DC0E12FE695E695E695F0E0E051FE4FBE
:1006A0009081990FD73008F590831F5FCF5FC535D4
:1006B000C9F678941832B8F04091F4012091F00115
:1006C0008091F101280F3327331F8091F201280F09
:1006D000311D8091F301820F932F911D99274817A7
:1006E000190609F477CF80E076CF9160DDCFCF9304
:1006F000DF93EC0160E08E810E94EB0161E08E816E
:100700000E94EB0160E08E810E94EB018BE891E09A
:100710000197F1F7DF91CF910895CF92DF92EF9299
:10072000FF920F931F93CF93DF936C017C0187E0BF
:10073000E80EF11CD0E0C0E0062F10E0B8010C2E4E
:1007400002C0759567950A94E2F76170F70181918F
:100750007F010E94EB012196C430D10579F7C601D3
:10076000DF91CF911F910F91FF90EF90DF90CF908D
:100770000C947703CF92DF92EF92FF920F931F9327
:10078000CF93DF93EC01F62E642F8C810E94EB0156
:100790008D818F3F19F060E00E94EB010F2D10E07A
:1007A0008F8584FF25C06E0187E0C80ED11CF12C17
:1007B000E12CB8010E2C02C0759567950A94E2F7FA
:1007C0006170F60181916F010E94EB01FFEFEF1A5A
:1007D000FF0A88E0E816F10461F7CE01DF91CF91BE
:1007E0001F910F91FF90EF90DF90CF900C947703C3
:1007F000B80184E0759567958A95E1F7CE010E946E
:100800008D036F2DCE01DF91CF911F910F91FF903E
:10081000EF90DF90CF900C948D0340E0682F8DEF28
:1008200091E00C94BA03CF93DF93823029F4909136
:100830000C02986090930C028093100210921102A7
:1008400080E48093120280E18093130280E580931C
:10085000140261E0809101020E941902809102025B
:100860008F3F19F061E00E94190261E0809103025C
:100870000E941902CDEFD1E09E012D5F31408091A1
:100880000C0284FD0BC084E090E021962817390704
:1008900044F461E08E810E941902EECF88E090E07E
:1008A000F4CF8BE39DE00197F1F760E080910102C6
:1008B0000E94EB0160E0809103020E94EB018091B5
:1008C00002028F3F19F060E00E94EB0180910C0260
:1008D00084FD39C063E08DEF91E00E948D03CBE48D
:1008E000D6E4CE010197F1F763E08DEF91E00E942D
:1008F0008D032197F1F763E08DEF91E00E948D0366
:1009000083E592E00197F1F762E08DEF91E00E94BC
:100910008D0380910C0280620E940D0484E080931C
:100920000D028CE00E940D0481E00E940D048BE317
:100930009FE10197F1F782E080930E0286E0DF915C
:10094000CF910C940D0480620E940D048BE496E418
:100950000197F1F780910C0280620E940D0483E5FB
:1009600092E00197F1F780910C0280620E940D04E1
:10097000D0CF41E00E94BA0381E090E00895FB01EE
:1009800001900020E9F73197AF01461B570BDC01BE
:10099000ED91FC910280F381E02D09948F929F925A
:1009A000AF92BF920F931F93CF93DF93CDB7DEB774
:1009B000A1970FB6F894DEBF0FBECDBF19A242308B
:1009C00008F44AE08E010F5D1F4F842E912CB12C4C
:1009D000A12CA50194010E94740AE62FB901CA0155
:1009E000EA3004F5E05DD801EE938D01232B242B32
:1009F000252B79F790E080E0109729F0BD018DEF6D
:100A000091E00E94BF04A1960FB6F894DEBF0FBE1E
:100A1000CDBFDF91CF911F910F91BF90AF909F906D
:100A20008F900895E95CDFCF4F925F926F927F9233
:100A30008F929F92AF92BF92CF92DF92EF92FF92EE
:100A40000F931F93CF936B017C01742EAC019B011C
:100A50000E946F0A6EE171E0811126C046015701C4
:100A6000E894B7F82FEF3FEF4FE75FE7C501B40118
:100A70000E946F0A81110CC02FEF3FEF4FE75FE735
:100A8000C501B4010E94A50862E271E0181664F085
:100A90002FEF3FEF4FE75FE4C701B6010E94FD096A
:100AA0001816ACF466E271E08DEF91E0CF911F91E2
:100AB0000F91FF90EF90DF90CF90BF90AF909F90FD
:100AC0008F907F906F905F904F900C94BF042FEFAA
:100AD0003FEF4FE75FECC701B6010E94A50887FD15
:100AE000E1CF20E030E0A901C701B6010E94A508CE
:100AF00010E000E087FF0CC041E06DE28DEF91E077
:100B00000E94BA03F7FAF094F7F8F09401E010E0CD
:100B1000C0E060E070E080E09FE37C1641F020E000
:100B200030E040E251E40E94AA08CF5FF6CFA7016F
:100B300096010E9439084B015C010E941C092B019F
:100B40003C014AE00E94CE04080F191FCC23C9F1D2
:100B5000C301B2010E944B099B01AC01C501B40164
:100B60000E9438084B015C0141E06EE28DEF91E09C
:100B70000E94BA030F5F1F4FC15018F120E030E010
:100B800040E251E4C501B4010E94020A2B013C017C
:100B90000E941C094B01B12CA12C4AE0C501B401F3
:100BA0000E94CE04080F191FC501B4010E944B0911
:100BB0009B01AC01C301B2010E9438084B015C01EA
:100BC000DBCFC801CF911F910F91FF90EF90DF9085
:100BD000CF90BF90AF909F908F907F906F905F90DD
:100BE0004F9008951F920F920FB60F9211242F93DA
:100BF0003F934F935F936F937F938F939F93AF93A5
:100C0000BF93EF93FF9383E591E00E940A01FF9168
:100C1000EF91BF91AF919F918F917F916F915F9174
:100C20004F913F912F910F900FBE0F901F901895ED
:100C30001F920F920FB60F9211242F938F939F93B1
:100C4000EF93FF93E0916301F09164018081E09163
:100C50006901F0916A0182FD1BC0908180916C0155
:100C60008F5F8F7320916D01821741F0E0916C01CD
:100C7000F0E0ED5AFE4F958F80936C01FF91EF915C
:100C80009F918F912F910F900FBE0F901F901895ED
:100C90008081F4CF1F920F920FB60F9211242F93E1
:100CA0003F938F939F93AF93BF9380914F01909108
:100CB0005001A0915101B091520130914A0123E0BD
:100CC000230F2D3758F50196A11DB11D20934A0120
:100CD00080934F0190935001A0935101B093520122
:100CE00080914B0190914C01A0914D01B0914E012A
:100CF0000196A11DB11D80934B0190934C01A093CF
:100D00004D01B0934E01BF91AF919F918F913F9153
:100D10002F910F900FBE0F901F90189526E8230F6C
:100D20000296A11DB11DD2CFCF93E3E5F1E013826E
:100D3000128288EE93E0A0E0B0E084839583A683DE
:100D4000B78384E091E09183808385EC90E0958780
:100D5000848784EC90E09787868780EC90E0918B85
:100D6000808B81EC90E0938B828B82EC90E0958B72
:100D7000848B86EC90E0978B868B118E128E138E6F
:100D8000148EEDEFF1E01382128286E191E09183FF
:100D900080838CE084838FEF8583CBE0C68385E0FE
:100DA000878384E0808783E0818782E0828713865F
:100DB000148615861686178681E00E941304E0EFDC
:100DC000F1E088E08683C78381E08487CF9108952E
:100DD000789484B5826084BD84B5816084BD85B516
:100DE000826085BD85B5816085BD80916E00816022
:100DF00080936E00109281008091810082608093C8
:100E000081008091810081608093810080918000C9
:100E10008160809380008091B10084608093B100F4
:100E20008091B00081608093B00080917A008460EE
:100E300080937A0080917A00826080937A0080911A
:100E40007A00816080937A0080917A008068809334
:100E50007A001092C100E0916301F091640182E098
:100E60008083E0915F01F09160011082E091610167
:100E7000F09162018FEC808310926B01E091670129
:100E8000F091680186E08083E0916501F091660150
:100E9000808180618083E0916501F09166018081AD
:100EA00088608083E0916501F091660180818068AF
:100EB0008083E0916501F091660180818F7D808360
:100EC00060E08091F6010E94190261E08091F601D4
:100ED0000E94EB011092F8011092F9011092FA01B0
:100EE0001092FB01C0E0D0E00E94A502882341F0EF
:100EF0008091F7018B3089F018F08551823080F1B4
:100F00006AE271E083E591E00E94BF04C12CD12C1C
:100F100090ECE92E9FE7F92E09C06091F00170E096
:100F200090E080E00E944B096B017C010E94A502C9
:100F3000882349F08091F7018B3099F120F0855199
:100F4000823008F468C06AE271E083E591E00E94B3
:100F5000BF04812C912C80ECA82E8FE7B82E2AC0DC
:100F60006091F00170E090E080E00E944B0920E089
:100F700030E040E853E40E94020A6B017C0160917A
:100F8000F10170E090E080E00E944D09A701960118
:100F90000E94390820E030E040E251E40E94AA08B3
:100FA000C3CF6091F20170E090E080E00E944B09B5
:100FB0004B015C0182E00E94130464E371E08DEF59
:100FC00091E00E94BF0442E0C501B4010E941405F3
:100FD000E0911002E23008F049C0E150F0E0E35047
:100FE000FE4F848980680E940D046FE371E08DEFED
:100FF00091E00E94BF0442E0C701B6010E941405BF
:10100000209709F471CF0E94F600882309F46CCF71
:101010000E94000069CF1091F201612F6F7770E09C
:1010200090E080E00E944D0920E030E040E853E489
:101030000E94020A4B015C016091F30170E090E0B4
:1010400080E00E944D09A50194010E94390820E02A
:1010500030E040E251E40E94AA084B015C0117FF16
:10106000A9CFB7FAB094B7F8B094A4CFE1E0B6CF67
:101070005058BB27AA270E9450080C94C3090E940D
:10108000B50938F00E94BC0920F039F49F3F19F4EB
:1010900026F40C94B2090EF4E095E7FB0C94AC092D
:1010A000E92F0E94D40958F3BA176207730784071F
:1010B000950720F079F4A6F50C94F6090EF4E09566
:1010C0000B2EBA2FA02D0B01B90190010C01CA0102
:1010D000A0011124FF27591B99F0593F50F4503EAD
:1010E00068F11A16F040A22F232F342F4427585F9F
:1010F000F3CF469537952795A795F0405395C9F7B7
:101100007EF41F16BA0B620B730B840BBAF091506E
:10111000A1F0FF0FBB1F661F771F881FC2F70EC00D
:10112000BA0F621F731F841F48F4879577956795E0
:10113000B795F7959E3F08F0B0CF9395880F08F0CC
:101140009927EE0F9795879508950E94880908F4CE
:1011500081E008950E94BE080C94C3090E94BC0956
:1011600058F00E94B50940F029F45F3F29F00C9433
:10117000AC0951110C94F7090C94B2090E94D409DE
:1011800068F39923B1F3552391F3951B550BBB27B6
:10119000AA2762177307840738F09F5F5F4F220FFB
:1011A000331F441FAA1FA9F335D00E2E3AF0E0E8F2
:1011B00032D091505040E695001CCAF72BD0FE2F3C
:1011C00029D0660F771F881FBB1F261737074807D0
:1011D000AB07B0E809F0BB0B802DBF01FF27935888
:1011E0005F4F3AF09E3F510578F00C94AC090C9497
:1011F000F7095F3FE4F3983ED4F3869577956795BA
:10120000B795F7959F5FC9F7880F911D96958795BC
:1012100097F90895E1E0660F771F881FBB1F6217DB
:1012200073078407BA0720F0621B730B840BBA0B99
:10123000EE1F88F7E09508950E94DC0988F09F571B
:1012400098F0B92F9927B751B0F0E1F0660F771FEA
:10125000881F991F1AF0BA95C9F714C0B13091F0E0
:101260000E94F609B1E008950C94F609672F782FD3
:101270008827B85F39F0B93FCCF3869577956795A5
:10128000B395D9F73EF490958095709561957F4F11
:101290008F4F9F4F0895E89409C097FB3EF49095B7
:1012A0008095709561957F4F8F4F9F4F9923A9F03F
:1012B000F92F96E9BB279395F695879577956795CE
:1012C000B795F111F8CFFAF4BB0F11F460FF1BC012
:1012D0006F5F7F4F8F4F9F4F16C0882311F096E9A5
:1012E00011C0772321F09EE8872F762F05C0662353
:1012F00071F096E8862F70E060E02AF09A95660F0C
:10130000771F881FDAF7880F9695879597F90895C4
:10131000990F0008550FAA0BE0E8FEEF1616170606
:10132000E807F907C0F012161306E407F50798F06E
:10133000621B730B840B950B39F40A2661F0232B87
:10134000242B252B21F408950A2609F4A140A69503
:101350008FEF811D811D089597F99F6780E870E0E8
:1013600060E008959FEF80EC089500240A9416161B
:10137000170618060906089500240A941216130683
:10138000140605060895092E0394000C11F4882311
:1013900052F0BB0F40F4BF2B11F460FF04C06F5F2D
:1013A0007F4F8F4F9F4F089557FD9058440F551F03
:1013B00059F05F3F71F04795880F97FB991F61F0D7
:1013C0009F3F79F087950895121613061406551F4E
:1013D000F2CF4695F1DF08C0161617061806991FBA
:1013E000F1CF86957105610508940895E894BB27AF
:1013F00066277727CB0197F908950E94880908F49A
:101400008FEF08950E94150A0C94C3090E94B50934
:1014100038F00E94BC0920F0952311F00C94AC091F
:101420000C94B20911240C94F7090E94D40970F3AA
:10143000959FC1F3950F50E0551F629FF001729F79
:10144000BB27F00DB11D639FAA27F00DB11DAA1F88
:10145000649F6627B00DA11D661F829F2227B00DD5
:10146000A11D621F739FB00DA11D621F839FA00D60
:10147000611D221F749F3327A00D611D231F849FB0
:10148000600D211D822F762F6A2F11249F57504007
:101490009AF0F1F088234AF0EE0FFF1FBB1F661F82
:1014A000771F881F91505040A9F79E3F510580F04B
:1014B0000C94AC090C94F7095F3FE4F3983ED4F325
:1014C000869577956795B795F795E7959F5FC1F7EF
:1014D000FE2B880F911D9695879597F908950E9488
:1014E0008809880B990B0895A1E21A2EAA1BBB1B31
:1014F000FD010DC0AA1FBB1FEE1FFF1FA217B307E0
:10150000E407F50720F0A21BB30BE40BF50B661FF5
:10151000771F881F991F1A9469F7609570958095B9
:1015200090959B01AC01BD01CF010895EE0FFF1F07
:0C1530000590F491E02D0994F894FFCF91
:10153C00000000002C018C00B9007901EA00C80001
:10154C00DC0000000000B9048C00A202A1026E6154
:10155C006E00696E66006F76660052656164206687
:10156C0061696C004E6869657420646F3A200044B0
:0A157C006F20616D3A2020203A0034
:00000001FF
