:020000040000FA
:100000000C945D000C9485000C9485000C94850084
:100010000C9485000C9485000C9485000C9485004C
:100020000C9485000C9485000C9485000C9485003C
:100030000C9485000C9485000C9485000C9485002C
:100040000C948A020C9485000C9458020C94320291
:100050000C9485000C9485000C9485000C9485000C
:100060000C9485000C9485000000000024002700FB
:100070002A0000000000250028002B0004040404CE
:100080000404040402020202020203030303030342
:10009000010204081020408001020408102001021F
:1000A00004081020000000080002010000030407FB
:1000B0000000000000000000020411241FBECFEF6A
:1000C000D8E0DEBFCDBF11E0A0E0B1E0ECE2F9E0A6
:1000D00002C005900D92A231B107D9F721E0A2E14B
:1000E000B1E001C01D92A83BB207E1F710E0CDE5F9
:1000F000D0E004C02197FE010E948E04CC35D107C8
:10010000C9F70E94D4020C9494040C940000EDEA08
:10011000F0E02491E9E9F0E09491E5E8F0E0E49181
:10012000EE23C9F0222339F0233001F1A8F4213065
:1001300019F1223029F1F0E0EE0FFF1FEE58FF4FCA
:10014000A591B4912FB7F894EC91811126C09095A8
:100150009E239C932FBF08952730A9F02830C9F023
:10016000243049F7209180002F7D03C0209180002A
:100170002F7720938000DFCF24B52F7724BDDBCFEE
:1001800024B52F7DFBCF2091B0002F772093B000B6
:10019000D2CF2091B0002F7DF9CF9E2BDACFAF9236
:1001A000BF92CF92DF92EF92FF920F931F93CF9364
:1001B000DF936C017B018B01040F151FEB015E01C6
:1001C000AE18BF08C017D10759F06991D601ED915B
:1001D000FC910190F081E02DC6010995892B79F7FA
:1001E000C501DF91CF911F910F91FF90EF90DF90AC
:1001F000CF90BF90AF900895FC01538D448D252F73
:1002000030E0842F90E0821B930B541710F0CF96B0
:10021000089501970895FC01918D828D981761F0E2
:10022000A28DAE0FBF2FB11D5D968C91928D9F5FF9
:100230009F73928F90E008958FEF9FEF0895FC01D8
:10024000918D828D981731F0828DE80FF11D858D8B
:1002500090E008958FEF9FEF0895FC01918D228D1E
:10026000892F90E0805C9F4F821B91098F739927A3
:1002700008958BE191E00E942D0121E0892B09F482
:1002800020E0822F089580E090E0892B29F00E94E1
:10029000390181110C9400000895FC01A48DA80F70
:1002A000B92FB11DA35ABF4F2C91848D90E00196B8
:1002B0008F739927848FA689B7892C93A089B189D8
:1002C0008C91837080648C93938D848D981306C079
:1002D0000288F389E02D80818F7D80830895EF92DD
:1002E000FF920F931F93CF93DF93EC0181E0888FF0
:1002F0009B8D8C8D98131AC0E889F989808185FFC0
:1003000015C09FB7F894EE89FF896083E889F98961
:1003100080818370806480839FBF81E090E0DF9163
:10032000CF911F910F91FF90EF900895F62E0B8DB6
:1003300010E00F5F1F4F0F731127E02E8C8D8E1171
:100340000CC00FB607FCFACFE889F989808185FFD8
:10035000F5CFCE010E944D01F1CFEB8DEC0FFD2FBB
:10036000F11DE35AFF4FF0829FB7F8940B8FEA8993
:10037000FB8980818062CFCFCF93DF93EC01888DA2
:100380008823B9F0AA89BB89E889F9898C9185FD10
:1003900003C0808186FD0DC00FB607FCF7CF8C919E
:1003A00085FFF2CF808185FFEDCFCE010E944D0108
:1003B000E9CFDF91CF910895CF93DF9390E0FC01D7
:1003C000E057FF4F249184589F4FFC01849188236C
:1003D000D1F090E0880F991FFC01E859FF4FA591DB
:1003E000B491FC01EE58FF4FC591D49161110EC03C
:1003F0009FB7F8948C91E22FE0958E238C932881FF
:10040000E223E8839FBFDF91CF9108958FB7F894DF
:10041000EC91E22BEC938FBFF6CF3FB7F89480912D
:10042000170190911801A0911901B0911A0126B5F8
:10043000A89B05C02F3F19F00196A11DB11D3FBF1C
:10044000BA2FA92F982F8827BC01CD01620F711DEB
:10045000811D911D42E0660F771F881F991F4A95E5
:10046000D1F708951F920F920FB60F9211242F9378
:100470003F934F935F936F937F938F939F93AF932C
:10048000BF93EF93FF938BE191E00E944D01FF91A9
:10049000EF91BF91AF919F918F917F916F915F91FC
:1004A0004F913F912F910F900FBE0F901F90189575
:1004B0001F920F920FB60F9211242F938F939F9339
:1004C000EF93FF93E0912B01F0912C018081E0915B
:1004D0003101F091320182FD1BC090818091340185
:1004E0008F5F8F7320913501821741F0E0913401C5
:1004F000F0E0E55EFE4F958F80933401FF91EF9120
:100500009F918F912F910F900FBE0F901F90189574
:100510008081F4CF1F920F920FB60F9211242F9368
:100520003F938F939F93AF93BF93809113019091CB
:100530001401A0911501B09116013091120123E030
:10054000230F2D3758F50196A11DB11D20931201DF
:100550008093130190931401A0931501B093160199
:100560008091170190911801A0911901B0911A0181
:100570000196A11DB11D8093170190931801A093BE
:100580001901B0931A01BF91AF919F918F913F9143
:100590002F910F900FBE0F901F90189526E8230FF4
:1005A0000296A11DB11DD2CF789484B5826084BD1E
:1005B00084B5816084BD85B5826085BD85B5816067
:1005C00085BD80916E00816080936E0010928100E5
:1005D00080918100826080938100809181008160A0
:1005E0008093810080918000816080938000809161
:1005F000B10084608093B1008091B00081608093ED
:10060000B00080917A00846080937A0080917A00B3
:10061000826080937A0080917A00816080937A0072
:1006200080917A00806880937A001092C10060E027
:100630008EE00E94DC0161E089E00E94DC01E09133
:100640002B01F0912C0182E08083E0912701F09151
:1006500028011082E0912901F0912A018FEC80831A
:1006600010923301E0912F01F091300186E08083F8
:10067000E0912D01F0912E01808180618083E091D5
:100680002D01F0912E01808188608083E0912D0101
:10069000F0912E01808180688083E0912D01F0919E
:1006A0002E0180818F7D808390E4392E44244A94EA
:1006B00023E0522E612C712C0DEA10E0C0E0D0E056
:1006C00030927C0080917A00806480937A008091DF
:1006D0007A0086FDFCCF8091780020917900322F3E
:1006E000282FA1E0BFEF0E947F04A30192010E9486
:1006F0002F0449015A018FEF880E911CA11CB11CD7
:10070000740161E089E00E94DC018114910491F59B
:1007100080E00E9487000E940D024B015C0184E68C
:10072000C82ED12CE12CF12C0E940D0268197909F8
:100730008A099B09683E734081059105A8F321E071
:10074000C21AD108E108F10888EE880E83E0981EED
:10075000A11CB11CC114D104E104F10429F72097B4
:1007600009F4AECF0E943901882309F4A9CF0E9471
:100770000000A6CFEFEF8E16910411F481E0C9CFEF
:10078000F8018491833021F148F48130B9F082304E
:10079000D1F0F0E8EF16F1048CF7BACF873011F101
:1007A000883041F18430A9F7809180008062809385
:1007B000800090928B0080928A00ADCF84B58068D3
:1007C00084BD87BCA8CF84B5806284BD88BCA3CF1C
:1007D0008091800080688093800090928900809250
:1007E000880099CF8091B00080688093B00080929B
:1007F000B30091CF8091B00080628093B00080926E
:10080000B40089CFEBE1F1E01382128288EE93E02D
:10081000A0E0B0E084839583A683B78384E091E071
:100820009183808385EC90E09587848784EC90E0C9
:100830009787868780EC90E0918B808B81EC90E0AD
:10084000938B828B82EC90E0958B848B86EC90E08E
:10085000978B868B118E128E138E148E0895052E13
:1008600097FB1EF400940E94460457FD07D00E9497
:100870004E0407FC03D04EF40C944604509540956A
:10088000309521953F4F4F4F5F4F0895909580953C
:10089000709561957F4F8F4F9F4F0895A1E21A2E5B
:1008A000AA1BBB1BFD010DC0AA1FBB1FEE1FFF1F14
:1008B000A217B307E407F50720F0A21BB30BE40B64
:1008C000F50B661F771F881F991F1A9469F76095AB
:1008D0007095809590959B01AC01BD01CF01089565
:1008E000A29FB001B39FC001A39F700D811D112471
:1008F000911DB29F700D811D1124911D08950E94BC
:100900007004332312F48A1B9B0B0C9489040E94FD
:100910007004B7FF0895821B930B0895EE0FFF1F1D
:100920000590F491E02D0994F894FFCF00000000A9
:0E0930006F01CF00FC00BC012D010B011F0167
:107E0000112484B714BE81FFF0D085E080938100F7
:107E100082E08093C00088E18093C10086E0809377
:107E2000C20080E18093C4008EE0C9D0259A86E02C
:107E300020E33CEF91E0309385002093840096BBD3
:107E4000B09BFECF1D9AA8958150A9F7CC24DD24C4
:107E500088248394B5E0AB2EA1E19A2EF3E0BF2EE7
:107E6000A2D0813461F49FD0082FAFD0023811F036
:107E7000013811F484E001C083E08DD089C08234E0
:107E800011F484E103C0853419F485E0A6D080C0E4
:107E9000853579F488D0E82EFF2485D0082F10E0AE
:107EA000102F00270E291F29000F111F8ED06801E7
:107EB0006FC0863521F484E090D080E0DECF843638
:107EC00009F040C070D06FD0082F6DD080E0C81688
:107ED00080E7D80618F4F601B7BEE895C0E0D1E017
:107EE00062D089930C17E1F7F0E0CF16F0E7DF06D8
:107EF00018F0F601B7BEE89568D007B600FCFDCFD4
:107F0000A601A0E0B1E02C9130E011968C91119780
:107F100090E0982F8827822B932B1296FA010C0160
:107F200087BEE89511244E5F5F4FF1E0A038BF0790
:107F300051F7F601A7BEE89507B600FCFDCF97BE46
:107F4000E89526C08437B1F42ED02DD0F82E2BD052
:107F50003CD0F601EF2C8F010F5F1F4F84911BD097
:107F6000EA94F801C1F70894C11CD11CFA94CF0C13
:107F7000D11C0EC0853739F428D08EE10CD085E9AC
:107F80000AD08FE07ACF813511F488E018D01DD067
:107F900080E101D065CF982F8091C00085FFFCCF94
:107FA0009093C60008958091C00087FFFCCF809118
:107FB000C00084FD01C0A8958091C6000895E0E648
:107FC000F0E098E1908380830895EDDF803219F02E
:107FD00088E0F5DFFFCF84E1DECF1F93182FE3DFCA
:107FE0001150E9F7F2DF1F91089580E0E8DFEE27F6
:047FF000FF270994CA
:027FFE00040479
:00000001FF
