:100000000C9462000C948A000C948A000C948A0070
:100010000C948A000C948A000C948A000C948A0038
:100020000C948A000C948A000C948A000C948A0028
:100030000C948A000C948A000C948A000C948A0018
:100040000C943B050C948A000C9409050C94E30471
:100050000C948A000C948A000C948A000C948A00F8
:100060000C9485050C948A000000000025002800EF
:100070002B0000000000240027002A0000000000E0
:1000800023002600290004040404040404040202DA
:100090000202020203030303030301020408102007
:1000A0004080010204081020010204081020000012
:1000B0000008000201000003040700000000000027
:1000C0000000A40611241FBECFEFD8E0DEBFCDBFD5
:1000D00011E0A0E0B1E0E4EEF0E102C005900D9285
:1000E000A838B107D9F723E0A8E8B1E001C01D9214
:1000F000A030B207E1F710E0C2E6D0E004C02197DB
:10010000FE010E946A08C136D107C9F70E94EC06B9
:100110000C9470080C94000008950895AF92BF925B
:10012000CF92DF92EF92FF920F931F93CF93DF93C3
:100130006C017B018B01040F151FEB015E01AE18F2
:10014000BF08C017D10759F06991D601ED91FC9114
:100150000190F081E02DC6010995892B79F7C50141
:10016000DF91CF911F910F91FF90EF90DF90CF9093
:10017000BF90AF900895FC01538D448D252F30E042
:10018000842F90E0821B930B541710F0CF960895A4
:1001900001970895FC01918D828D981761F0A28DD1
:1001A000AE0FBF2FB11D5D968C91928D9F5F9F7397
:1001B000928F90E008958FEF9FEF0895FC01918D4D
:1001C000828D981731F0828DE80FF11D858D90E0BA
:1001D00008958FEF9FEF0895FC01918D228D892F57
:1001E00090E0805C9F4F821B91098F73992708953F
:1001F0008BE492E00E94EC0021E0892B09F420E0DE
:10020000822F089580E090E0892B29F00E94F80069
:1002100081110C9400000895FC01A48DA80FB92F42
:10022000B11DA35ABF4F2C91848D90E001968F731E
:100230009927848FA689B7892C93A089B1898C913D
:10024000837080648C93938D848D981306C002888C
:10025000F389E02D80818F7D80830895EF92FF9256
:100260000F931F93CF93DF93EC0181E0888F9B8DD9
:100270008C8D98131AC0E889F989808185FF15C093
:100280009FB7F894EE89FF896083E889F9898081B6
:100290008370806480839FBF81E090E0DF91CF9185
:1002A0001F910F91FF90EF900895F62E0B8D10E0A7
:1002B0000F5F1F4F0F731127E02E8C8D8E110CC016
:1002C0000FB607FCFACFE889F989808185FFF5CF61
:1002D000CE010E940C01F1CFEB8DEC0FFD2FF11D33
:1002E000E35AFF4FF0829FB7F8940B8FEA89FB899E
:1002F00080818062CFCFCF93DF93EC01888D8823FC
:10030000B9F0AA89BB89E889F9898C9185FD03C078
:10031000808186FD0DC00FB607FCF7CF8C9185FF5D
:10032000F2CF808185FFEDCFCE010E940C01E9CF95
:10033000DF91CF910895833081F028F4813099F0D6
:100340008230A9F008958730A9F08830C9F0843050
:10035000B1F4809180008F7D03C0809180008F7701
:1003600080938000089584B58F7784BD089584B507
:100370008F7DFBCF8091B0008F778093B000089580
:100380008091B0008F7DF9CF1F93CF93DF93282FFB
:1003900030E0F901E255FF4F8491F901E656FF4F35
:1003A000D491F901EA57FF4FC491CC23A9F0162F3D
:1003B00081110E949B01EC2FF0E0EE0FFF1FE85926
:1003C000FF4FA591B4918FB7F894EC91111108C02B
:1003D000D095DE23DC938FBFDF91CF911F910895DD
:1003E000DE2BF8CF3FB7F89480913F029091400206
:1003F000A0914102B091420226B5A89B05C02F3FB3
:1004000019F00196A11DB11D3FBFBA2FA92F982F3A
:100410008827BC01CD01620F711D811D911D42E035
:10042000660F771F881F991F4A95D1F708958F92FD
:100430009F92AF92BF92CF92DF92EF92FF924B01C9
:100440005C010E94F2016B017C010E94F2016C19B7
:100450007D098E099F09683E734081059105A8F3C7
:1004600021E0821A9108A108B10888EEC80E83E045
:10047000D81EE11CF11C81149104A104B10429F7D8
:10048000FF90EF90DF90CF90BF90AF909F908F90B4
:10049000089508952091C901260F3327331F213273
:1004A0003105ECF420911202FC0190E080E0243050
:1004B00069F082E00895A091C9012191AC014755EE
:1004C0005E4FA40FB52FB11D2C930196861798F39C
:1004D0008091C901680F6093C90180E0089581E0AF
:1004E00008951092120281E0809311021092EC01A3
:1004F00061E082E10E94C40161E083E10E94C401E5
:10050000E9EBF0E080818E7F808380818D7F808326
:1005100088E48093B80085E48093BC000895CF936D
:10052000DF9391E09093A8018823B9F0C091B800BF
:10053000D091BA008091BC008A7B8093BC0060E0BF
:1005400082E10E94C40160E083E10E94C4010E9434
:100550007102D093BA00C093B800DF91CF91089593
:100560000895E0914A0280914902E81730F4F0E0E2
:10057000E857FE4F808190E008958FEF9FEF089538
:1005800090914A02809149022FEF3FEF981748F46B
:10059000E92FF0E0E857FE4F208130E09F5F909315
:1005A0004A02C90108958091490290914A02891B2B
:1005B000990B0895CF92DF92EF92FF920F931F93C2
:1005C000CF93DF937C01CB018A0120911802222373
:1005D00089F0EB016B01C40ED51ECC15DD0569F069
:1005E0006991D701ED91FC910190F081E02DC70157
:1005F0000995F3CF642F0E944A02C801DF91CF9181
:100600001F910F91FF90EF90DF90CF900895CF93BF
:10061000DF931F92CDB7DEB76983209118022223A2
:10062000F9F020914702203258F021E030E0FC013F
:100630003383228390E080E00F90DF91CF91089583
:1006400080914802E82FF0E0E75EFD4F99819083AA
:100650008F5F809348028093470281E090E0ECCF67
:1006600061E0CE0101960E944A02F7CFCF92DF925D
:10067000EF92FF920F931F93CF93DF93FC01C481FE
:1006800021E020931802C093390210924802109280
:1006900047028385682B88EE92E00E940703D09181
:1006A0004702D13208F092C00E94F2016B017C0136
:1006B00080911202811165C082E08093120281E074
:1006C000809311028FEF8093100210920F02D0934B
:1006D0000E02A9E1B2E0EEEEF1E080E0D81385C0B1
:1006E0001092ED018091ED01CC0FC82BC093ED016C
:1006F0008091EC01813009F07CC01092EC010E94E5
:10070000F2016B017C018091ED018093BB0080912F
:10071000140290911502A0911602B0911702892B34
:100720008A2B8B2B99F00E94F201009114021091F8
:10073000150220911602309117026C197D098E095D
:100740009F090617170728073907E0F18091BC00B9
:1007500083FDD9CF85EC8093BC000E94F2016B0130
:100760007C0180911202823009F445C08091100210
:100770008F3F61F180911002803241F1809110022F
:1007800025C08091140290911502A0911602B0919B
:100790001702892B8A2B8B2B09F48ACF0E94F20136
:1007A0000091140210911502209116023091170247
:1007B0006C197D098E099F09061717072807390745
:1007C00008F076CF809113020E948F0210924802A7
:1007D0001092470210921802DF91CF911F910F9152
:1007E000FF90EF90DF90CF9008959D9191938F5F50
:1007F00075CF85EEB0CF8091140290911502A09133
:100800001602B0911702892B8A2B8B2B09F4A9CFE2
:100810000E94F2010091140210911502209116021B
:10082000309117026C197D098E099F090617170769
:100830002807390708F095CFC5CF90E080E00895EC
:10084000FB0101900020E9F73197AF01461B570BE0
:10085000DC01ED91FC910280F381E02D0994CF93AE
:10086000DF93BC018BE492E00E942004EC0168E37A
:1008700071E08BE492E00E9420048C0F9D1FDF91B9
:10088000CF9108950F931F93CF938C01C62F0E9491
:1008900036036C2F6460C8010E9436036C2F6B7F97
:1008A000C8010E94360383EC90E00197F1F7CF91E5
:1008B0001F910F9108950F931F93CF93DF938C0196
:1008C000D62FC42F607F642B0E94420480E1D89F02
:1008D000B00111246C2BC801DF91CF911F910F91B2
:1008E0000C944204CF93DF93CDB7DEB728970FB6B1
:1008F000F894DEBF0FBECDBF98E0E0E0F1E0DE018E
:10090000119601900D929A95E1F79091FC0296173D
:1009100008F46FEF262F30E0220F331F41E050E044
:100920004C0F5D1F240F351FF9016081680F60684F
:1009300040E084EF92E028960FB6F894DEBF0FBE39
:10094000CDBFDF91CF910C945B0441E00E945B042A
:1009500081E090E0089585ED8093BC0080911402C1
:1009600090911502A0911602B09117020796A11D51
:10097000B11D23E0B695A795979587952A95D1F750
:100980002091BC0024FD03C01092120208954091F2
:100990001402509115026091160270911702452BB6
:1009A000462B472B69F30097A105B10541F025E3DC
:1009B0002A95F1F700000197A109B109E1CF8091D3
:1009C00013020C948F021F920F920FB60F921124F4
:1009D0002F933F934F935F936F937F938F939F9347
:1009E000AF93BF93EF93FF938BE492E00E940C01CF
:1009F000FF91EF91BF91AF919F918F917F916F91F7
:100A00005F914F913F912F910F900FBE0F901F90CC
:100A100018951F920F920FB60F9211242F938F9358
:100A20009F93EF93FF93E0915B02F0915C028081D2
:100A3000E0916102F091620282FD1BC09081809181
:100A400064028F5F8F7320916502821741F0E091FD
:100A50006402F0E0E55BFD4F958F80936402FF91A7
:100A6000EF919F918F912F910F900FBE0F901F903C
:100A700018958081F4CF1F920F920FB60F92112418
:100A80002F933F938F939F93AF93BF9380913B029C
:100A900090913C02A0913D02B0913E0230913A0209
:100AA00023E0230F2D3758F50196A11DB11D20938A
:100AB0003A0280933B0290933C02A0933D02B09394
:100AC0003E0280913F0290914002A0914102B0917C
:100AD00042020196A11DB11D80933F0290934002F6
:100AE000A0934102B0934202BF91AF919F918F9129
:100AF0003F912F910F900FBE0F901F90189526E8F1
:100B0000230F0296A11DB11DD2CF1F920F920FB6D7
:100B10000F9211242F933F934F935F936F937F9383
:100B20008F939F93AF93BF93EF93FF938091B900FF
:100B3000887F803609F44AC0F0F5883209F4A7C0EE
:100B400018F5803109F49BC0B8F4882309F4F9C082
:100B5000883009F494C0FF91EF91BF91AF919F91BC
:100B60008F917F916F915F914F913F912F910F9056
:100B70000FBE0F901F901895883109F488C08032FD
:100B800051F78093100214C0803409F49DC040F4E2
:100B90008033B9F38833F9F68093100285ECB0C046
:100BA000803509F485C0883509F496C0883499F6F3
:100BB0000E94AB04D0CF883909F48CC038F588374F
:100BC00029F050F4883611F0803729F683E08093BD
:100BD00012021092EB0157C0883809F47BC08039AB
:100BE00019F0803809F0B7CF8091EB01803208F01E
:100BF00071C0E091EB0181E08E0F8093EB01809159
:100C0000BB00F0E0E553FE4F80833DC0803B39F0F0
:100C1000E0F4803A09F479C0883A09F09CCF84E086
:100C2000809312021092CA011092C901E09145020C
:100C3000F091460209958091C90181110FC081E0B0
:100C40008093C9011092A90109C0803C09F4A6CF84
:100C5000883C09F4A3CF883B09F07DCFE091CA011D
:100C600081E08E0F8093CA01F0E0E755FE4F80814E
:100C70008093BB009091CA018091C90129C08091E5
:100C8000ED018093BB0085EC8093BC0064CF909114
:100C90000F0280910E02981758F5E0910F0281E043
:100CA0008E0F80930F02F0E0E251FE4F8081E9CF7A
:100CB000E0910F0281E08E0F80930F028091BB00C4
:100CC000F0E0E251FE4F808390910F0280910E027E
:100CD0009817C8F285E8D8CFE0910F0281E08E0F17
:100CE00080930F028091BB00F0E0E251FE4F8083C1
:100CF0008091110281115CCF81E08093EC0184EA44
:100D00008093BC001092120226CF85EC8093BC0029
:100D1000109212028091EB01803230F4E091EB01ED
:100D2000F0E0E553FE4F10826091EB0170E0E0913E
:100D30004302F09144028BEC91E009951092EB0193
:100D40000ACF1092100234CFEBE4F2E01382128249
:100D500088EE93E0A0E0B0E084839583A683B78318
:100D60002CE031E03183208325EC30E03587248787
:100D700024EC30E03787268720EC30E0318B208B65
:100D800021EC30E0338B228B22EC30E0358B248B4E
:100D900026EC30E0378B268B118E128E138E148E3C
:100DA000E8EEF2E01382128284839583A683B783F0
:100DB0008EE191E091838083E4EFF2E0138212826E
:100DC00080E391E09183808387E2848380E181875F
:100DD00082E0828713860895789484B5826084BD0A
:100DE00084B5816084BD85B5826085BD85B581602F
:100DF00085BD80916E00816080936E0010928100AD
:100E00008091810082608093810080918100816067
:100E10008093810080918000816080938000809128
:100E2000B10084608093B1008091B00081608093B4
:100E3000B00080917A00846080937A0080917A007B
:100E4000826080937A0080917A00816080937A003A
:100E500080917A00806880937A001092C100C0EA85
:100E6000D0E0FE0124910CE810E0F8018491882381
:100E7000C9F090E0880F991FFC01EE58FF4FA59133
:100E8000B491FC01E859FF4F459154913FB7F89454
:100E90009C91822F809598239C93FA0190818923BD
:100EA00080833FBFE0915B02F0915C0282E080832F
:100EB000E0915702F09158021082E0915902F091AE
:100EC0005A028FEC808310926302E0915F02F091EE
:100ED000600286E08083E0915D02F0915E02808195
:100EE00080618083E0915D02F0915E028081886084
:100EF0008083E0915D02F0915E0280818068808352
:100F0000E0915D02F0915E0280818F7D80838BE3B2
:100F100091E00E942F0410924A021092490210920E
:100F20004802109247020E9471028CE890E0909370
:100F30004602809345028DE890E0909344028093AE
:100F400043021092F9028091FE02823018F098E07C
:100F50009093F9028093FC0262E370E080E090E0FD
:100F60000E9417026091FF0284EF92E00E94360314
:100F700068EE73E080E090E00E94170260E384EF87
:100F800092E00E9442049BE4E92E96E4F92EC70108
:100F90000197F1F760E384EF92E00E944204C701F9
:100FA0000197F1F760E384EF92E00E94420483E549
:100FB00092E00197F1F760E284EF92E00E94420430
:100FC0006091F902606240E084EF92E00E945B046D
:100FD00084E08093FA0240E06CE084EF92E00E94AB
:100FE0005B0440E061E084EF92E00E945B042BE34D
:100FF000E22E2FE1F22EC7010197F1F782E08093F4
:10100000FB0240E066E084EF92E00E945B0440E077
:1010100062E084EF92E00E945B04C7010197F1F760
:1010200088E08093FF0260E084EF92E00E94360344
:1010300060E083E00E9472046DE471E084EF92E06E
:101040000E94200434EBE32E30E0F32E40E0C42E67
:1010500040E0D42EF7018491FE01A490F801B490F1
:10106000BB2069F181110E949B01EB2DF0E0EE0F96
:10107000FF1FE458FF4FA591B4918C91A822F9F07D
:101080008AE591E00E942F0461E080E00E947204F2
:1010900065E671E084EF92E00E94200468EE73E060
:1010A00080E090E00E941702C114D10499F20E94DE
:1010B000F800882309F4CECF0E940000CBCF8DE644
:1010C00091E00E942F0461E080E00E9472046FE7CB
:1010D00071E0E0CFEE0FFF1F0590F491E02D099431
:0410E000F894FFCFB2
:1010E4000000400014005400000000002E018E0097
:1010F400BB007B01EC00CA00DE0000000000070317
:10110400DA021D04B002D302C002B10200000000E2
:10111400A5048E001D0449020D0A004461206B6879
:101124006F6920646F6E6720786F6E670043616D2E
:10113400204269656E204D756100C490616E672020
:101144006DC6B061005261696E696E6700C49061DA
:101154006E67206B68C3B46E67206DC6B061004EC5
:081164006F207261696E00004A
:00000001FF
