:100000000C944B010C947C010C947C010C947C01AD
:100010000C947C010C947C010C947C010C947C016C
:100020000C947C010C947C010C947C010C947C015C
:100030000C947C010C947C010C947C010C947C014C
:100040000C947C010C947C010C947C010C947C013C
:100050000C947C010C947C010C947C010C949E0605
:100060000C947C010C9468060C943E060C947C0164
:100070000C947C010C947C010C947C010C947C010C
:100080000C947C010C947C010C947C010C947C01FC
:100090000C947C010C947C010C947C010C94E8067B
:1000A0000C947C010C947C010C947C010C947C01DC
:1000B0000C947C010C947C010C947C010C947C01CC
:1000C0000C947C010C947C010C947C010C947C01BC
:1000D0000C947C010C947C010C947C010C947C01AC
:1000E0000C947C010C9430030C941A030C940006BD
:1000F0000C941E030C94D0010C94E9020C9463023E
:100100000C9422030C9414030C9454040C946B056B
:100110000C947F010C94FF020C94BC010C945108C8
:100120000C94FE030C9480010C94DE010C943603B5
:100130000C947E010C94FB020C9410030C940A03A3
:100140000C94FD030C94E4020C9416020C946A05C2
:100150000C943A030C942C030C9428030C94030382
:100160000C9427040C940D040C9407030C942004A5
:100170000C94AD0100000A0B02090C0D0E080703D8
:10018000040100000000000000000000000000006A
:10019000000000000000000000000000000000005F
:1001A000121110000000000000000000000000001C
:1001B00000000000000000000000000022002500F8
:1001C00028002B002E003100340002010000050140
:1001D00008010B0100002100240027002A002D0047
:1001E0003000330001010000040107010A01000092
:1001F00020002300260029002C002F0032000001DF
:1002000000000301060109010505050507050808A9
:100210000808020202020A0A080804040404010190
:1002200001010101010103030303030303030407A5
:1002300007070C0C0C0C0C0C0C0C0202020206063C
:100240000606060606060B0B0B0B0B0B0B0B01022F
:1002500010202008081020401020408002010201D8
:100260000804020101020408102040808040201090
:1002700008040201800402018040201008040201E9
:100280000804020101020408102040800102040851
:1002900010204080510811241FBECFEFD1E2DEBFF5
:1002A000CDBF00E00CBF12E0A0E0B2E0E8ECF7E167
:1002B00000E00BBF02C007900D92A234B107D9F73E
:1002C00023E0A2E4B2E001C01D92AA3BB207E1F72D
:1002D00011E0CBE4D1E000E006C021970109802FB6
:1002E000FE010E94DA0BCA34D10780E00807A9F7A3
:1002F0000E9499080C94E20B0C9400000895089554
:10030000AF92BF92CF92DF92EF92FF920F931F9323
:10031000CF93DF936C017B018B01040F151FEB0161
:100320005E01AE18BF08C017D10759F06991D60118
:10033000ED91FC910190F081E02DC6011995892B7A
:1003400079F7C501DF91CF911F910F91FF90EF9049
:10035000DF90CF90BF90AF900895FC01538D448DF6
:10036000252F30E0842F90E0821B930B541710F060
:10037000CF96089501970895FC01918D828D98176D
:1003800061F0A28DAE0FBF2FB11D5D968C91928D45
:100390009F5F9F73928F90E008958FEF9FEF089576
:1003A000FC01918D828D981731F0828DE80FF11D3F
:1003B000858D90E008958FEF9FEF0895FC01918D5A
:1003C000228D892F90E0805C9F4F821B91098F7353
:1003D0009927089585E093E00E94DE0121E0892BB2
:1003E00009F420E0822F0895FC01A48DA80FB92FF5
:1003F000B11DA35ABF4F2C91848D90E001968F734D
:100400009927848FA689B7892C93A089B1898C916B
:10041000837080648C93938D848D981306C00288BA
:10042000F389E02D80818F7D80830895EF92FF9284
:100430000F931F93CF93DF93EC0181E0888F9B8D07
:100440008C8D98131AC0E889F989808185FF15C0C1
:100450009FB7F894EE89FF896083E889F9898081E4
:100460008370806480839FBF81E090E0DF91CF91B3
:100470001F910F91FF90EF900895F62E0B8D10E0D5
:100480000F5F1F4F0F731127E02E8C8D8E110CC044
:100490000FB607FCFACFE889F989808185FFF5CF8F
:1004A000CE010E94F401F1CFEB8DEC0FFD2FF11D79
:1004B000E35AFF4FF0829FB7F8940B8FEA89FB89CC
:1004C00080818062CFCFCF93DF93EC01888D88232A
:1004D000B9F0AA89BB89E889F9898C9185FD03C0A7
:1004E000808186FD0DC00FB607FCF7CF8C9185FF8C
:1004F000F2CF808185FFEDCFCE010E94F401E9CFDC
:10050000DF91CF91089580E090E0892B29F00E943F
:10051000EA0181110E94000080E090E0892B49F0FF
:1005200080E090E0892B29F00E94000081110E9458
:10053000000080E090E0892B49F080E090E0892B7A
:1005400029F00E94000081110E94000080E090E0EC
:10055000892B49F080E090E0892B29F00E9400006F
:1005600081110C9400000895282F30E0F901EC5817
:10057000FE4F9491F901E25BFD4F4491285F3D4F9E
:10058000F9012491222309F435C0992311F19150E6
:100590009231F8F4E92FF0E08827EE52FD4F8F4FAB
:1005A0000C94DA0B03030703E402FB02FF02E902E7
:1005B0000A03100314031A031E03220328032C0347
:1005C000E902300336033A03809180008F778093ED
:1005D0008000E22FF0E0EE0FFF1FE654FE4FA591E2
:1005E000B4918FB7F894EC91611148C040954E23B7
:1005F0004C938FBF0895809180008F7DE8CF8091CC
:100600008000877FE4CF84B58F7784BDE2CF84B547
:100610008F7DFBCF8091B0008F778093B000D9CFD2
:100620008091B0008F7DF9CF809190008F7780937B
:100630009000CFCF809190008F7DF9CF8091900076
:10064000877FF5CF8091A0008F778093A000C1CFE6
:100650008091A0008F7DF9CF8091A000877FF5CF9A
:10066000809120018F7780932001B3CF809120016A
:100670008F7DF9CF80912001877FF5CF4E2BB8CFAA
:100680003FB7F8948091F9029091FA02A091FB0291
:10069000B091FC0226B5A89B05C02F3F19F001962A
:1006A000A11DB11D3FBFBA2FA92F982F8827BC01CC
:1006B000CD01620F711D811D911D42E0660F771FF4
:1006C000881F991F4A95D1F708958F929F92AF92F4
:1006D000BF92CF92DF92EF92FF924B015C010E949A
:1006E00040036B017C010E9440036C197D098E0957
:1006F0009F09683E734081059105A8F321E0821AA5
:100700009108A108B10888EEC80E83E0D81EE11C4C
:10071000F11C81149104A104B10429F7FF90EF901A
:10072000DF90CF90BF90AF909F908F9008952091D1
:10073000AA02260F3327331F21323105ECF4209112
:10074000CE02FC0190E080E0243069F082E0089560
:10075000A091AA022191AC0146575D4FA40FB52F7D
:10076000B11D2C930196861798F38091AA02680F09
:100770006093AA0280E0089581E008951092CE026D
:1007800081E08093D0021092CF0261E084E10E9468
:10079000B40261E085E10E94B402E9EBF0E08081FF
:1007A0008E7F808380818D7F808388E48093B800F2
:1007B00085E48093BC000895CF93DF9391E09093FC
:1007C00089028823B9F0C091B800D091BA00809115
:1007D000BC008A7B8093BC0060E084E10E94B4028C
:1007E00060E085E10E94B4020E94BE03D093BA008B
:1007F000C093B800DF91CF9108950895E09104036C
:1008000080910303E81730F4F0E0EC59FD4F80814C
:1008100090E008958FEF9FEF0895909104038091E9
:1008200003032FEF3FEF981748F4E92FF0E0EC595E
:10083000FD4F208130E09F5F90930403C90108952C
:100840008091030390910403891B990B0895CF9223
:10085000DF92EF92FF920F931F93CF93DF937C0170
:10086000CB018A0120916302222389F0EB016B0105
:10087000C40ED51ECC15DD0569F06991D701ED9147
:10088000FC910190F081E02DC7011995F3CF642F01
:100890000E949703C801DF91CF911F910F91FF90A4
:1008A000EF90DF90CF900895CF93DF931F92CDB755
:1008B000DEB76983209163022223F9F020910103BE
:1008C000203258F021E030E0FC013383228390E0B5
:1008D00080E00F90DF91CF91089580910203E82F7F
:1008E000F0E0ED5BFD4F998190838F5F8093020371
:1008F0008093010381E090E0ECCF61E0CE010196AE
:100900000E949703F7CFCF92DF92EF92FF920F935F
:100910001F93CF93DF93FC01C48121E020936302F6
:10092000C093420210920203109201038385682B48
:1009300082EA93E00E945404D0910103D13208F07E
:1009400092C00E9440036B017C018091CE02811114
:1009500065C082E08093CE0281E08093D0028FEF69
:100960008093CD021092F202D093F102A3E4B2E0A0
:10097000E1EDF2E080E0D81385C01092F30280919F
:10098000F302CC0FC82BC093F3028091CF028130C9
:1009900009F07CC01092CF020E9440036B017C01E1
:1009A0008091F3028093BB00809185029091860232
:1009B000A0918702B0918802892B8A2B8B2B99F00A
:1009C0000E944003009185021091860220918702C7
:1009D000309188026C197D098E099F090617170747
:1009E00028073907E0F18091BC0083FDD9CF85EC61
:1009F0008093BC000E9440036B017C018091CE0279
:100A0000823009F445C08091CD028F3F61F1809121
:100A1000CD02803241F18091CD0225C080918502C6
:100A200090918602A0918702B0918802892B8A2B2F
:100A30008B2B09F48ACF0E9440030091850210910C
:100A4000860220918702309188026C197D098E09F7
:100A50009F09061717072807390708F076CF8091F6
:100A600084020E94DC031092020310920103109290
:100A70006302DF91CF911F910F91FF90EF90DF9074
:100A8000CF9008959D9191938F5F75CF85EEB0CFF4
:100A90008091850290918602A0918702B091880290
:100AA000892B8A2B8B2B09F4A9CF0E94400300913C
:100AB00085021091860220918702309188026C197C
:100AC0007D098E099F09061717072807390708F0BF
:100AD00095CFC5CF089590E080E008958F929F92C2
:100AE000AF92BF920F931F93CF93DF93CDB7DEB733
:100AF000A1970FB6F894DEBF0FBECDBF19A242304A
:100B000008F44AE08E010F5D1F4F842E912CB12C0A
:100B1000A12CA50194010E94B80BE62FB901CA01CE
:100B2000EA3044F5E05DD801EE938D01232B242BB0
:100B3000252B79F790E080E0109769F0FD01019096
:100B40000020E9F73197AF014A1B5B0BBD018EEA2C
:100B500093E00E948001A1960FB6F894DEBF0FBE0D
:100B6000CDBFDF91CF911F910F91BF90AF909F901C
:100B70008F900895E95CD7CFFC0101900020E9F740
:100B80003197AF01481B590BBC018EEA93E00C94DE
:100B900080010F931F93CF938C01C62F0E94830473
:100BA0006C2F6460C8010E9483046C2F6B7FC801A6
:100BB0000E94830483EC90E00197F1F7CF911F919D
:100BC0000F9108950F931F93CF93DF938C01D62F2E
:100BD000C42F607F642B0E94C90580E1D89FB001BB
:100BE00011246C2BC801DF91CF911F910F910C94B0
:100BF000C905682F606840E08EEA93E00C94E20536
:100C000041E00E94E20581E090E0089585ED809347
:100C1000BC008091850290918602A0918702B091DC
:100C200088020796A11DB11D23E0B695A79597955B
:100C300087952A95D1F72091BC0024FD03C010921E
:100C4000CE020895409185025091860260918702FC
:100C500070918802452B462B472B69F30097A1051D
:100C6000B10541F025E32A95F1F700000197A109AC
:100C7000B109E1CF809184020C94DC031F920F92A2
:100C80000FB60F9211240BB60F922F933F934F93F1
:100C90005F936F937F938F939F93AF93BF93EF93E4
:100CA000FF9385E093E00E94F401FF91EF91BF91E3
:100CB000AF919F918F917F916F915F914F913F91F4
:100CC0002F910F900BBE0F900FBE0F901F90189595
:100CD0001F920F920FB60F9211240BB60F922F9303
:100CE0008F939F93EF93FF93E0911503F091160379
:100CF0008081E0911B03F0911C0382FD1DC0908157
:100D000080911E038F5F8F7320911F03821741F024
:100D1000E0911E03F0E0EB5FFC4F958F80931E0384
:100D2000FF91EF919F918F912F910F900BBE0F909C
:100D30000FBE0F901F9018958081F2CF1F920F92D7
:100D40000FB60F9211242F933F938F939F93AF93DE
:100D5000BF938091F5029091F602A091F702B091B5
:100D6000F8023091F40223E0230F2D3758F5019655
:100D7000A11DB11D2093F4028093F5029093F60219
:100D8000A093F702B093F8028091F9029091FA02D1
:100D9000A091FB02B091FC020196A11DB11D8093B0
:100DA000F9029093FA02A093FB02B093FC02BF9168
:100DB000AF919F918F913F912F910F900FBE0F9008
:100DC0001F90189526E8230F0296A11DB11DD2CFC2
:100DD0001F920F920FB60F9211240BB60F922F9302
:100DE0003F934F935F936F937F938F939F93AF93B3
:100DF000BF93EF93FF938091B900887F803609F409
:100E00004DC008F040C0883209F4A9C028F58031EF
:100E100009F49DC0C8F4882309F4FBC0883009F4A4
:100E200096C0FF91EF91BF91AF919F918F917F916C
:100E30006F915F914F913F912F910F900BBE0F904B
:100E40000FBE0F901F901895883109F488C080322A
:100E500041F78093CD0214C0803409F49DC040F462
:100E60008033B9F38833E9F68093CD0285ECB0C0C6
:100E7000803509F485C0883509F496C0883489F630
:100E80000E940606CECF883909F48CC038F5883721
:100E900029F050F4883611F0803719F683E08093FA
:100EA000CE021092CC0257C0883809F47BC080393A
:100EB00019F0803809F0B5CF8091CC02803208F06B
:100EC00071C0E091CC0281E08E0F8093CC028091C2
:100ED000BB00F0E0E455FD4F80833DC0803B39F01E
:100EE000E0F4803A09F479C0883A09F09ACF84E0B6
:100EF0008093CE021092AB021092AA02E091FF0200
:100F0000F091000319958091AA0281110FC081E030
:100F10008093AA0210928A0209C0803C09F4A6CFED
:100F2000883C09F4A3CF883B09F07BCFE091AB026A
:100F300081E08E0F8093AB02F0E0E657FD4F808199
:100F40008093BB009091AB028091AA0229C080914E
:100F5000F3028093BB0085EC8093BC0062CF90913C
:100F6000F2028091F102981758F5E091F20281E0C7
:100F70008E0F8093F202F0E0EF52FD4F8081E9CFB7
:100F8000E091F20281E08E0F8093F2028091BB002B
:100F9000F0E0EF52FD4F80839091F2028091F102D8
:100FA0009817C8F285E8D8CFE091F20281E08E0F61
:100FB0008093F2028091BB00F0E0EF52FD4F8083FE
:100FC0008091D00281115CCF81E08093CF0284EACE
:100FD0008093BC001092CE0224CF85EC8093BC009D
:100FE0001092CE028091CC02803230F4E091CC029B
:100FF000F0E0E455FD4F10826091CC0270E0E0918A
:10100000FD02F091FE028CEA92E019951092CC025A
:1010100008CF1092CD0234CFCF92DF92EF92FF92A1
:101020000F931F93E82FF92F05C0015011092109D3
:10103000310961F1908196239417B9F305C00150ED
:1010400011092109310911F1908196239413F7CFE9
:10105000C12CD12CE12CF12C0AC08FEFC81AD80A70
:10106000E80AF80A0C151D052E053F0579F0808168
:101070008623841791F36C2D7D2D8E2D9F2D1F912E
:101080000F91FF90EF90DF90CF90089560E070E0B7
:1010900080E090E01F910F91FF90EF90DF90CF9054
:1010A0000895E5E0F3E01382128288EE93E0A0E079
:1010B000B0E084839583A683B78324E032E0318354
:1010C000208325EC30E03587248724EC30E0378717
:1010D000268720EC30E0318B208B21EC30E0338B05
:1010E000228B22EC30E0358B248B26EC30E0378BE2
:1010F000268B118E128E138E148EE2EAF3E0138289
:10110000128284839583A683B78386E192E09183DC
:101110008083EEEAF3E01382128288E292E0918308
:10112000808387E2848380E1818782E082871386DF
:101130000895789484B5826084BD84B5816084BD4F
:1011400085B5826085BD85B5816085BD80916E0065
:10115000816080936E001092810080918100826096
:1011600080938100809181008160809381008091D3
:1011700080008160809380008091B10084608093C2
:10118000B1008091B00081608093B00080919100A7
:1011900082608093910080919100816080939100A2
:1011A000809190008160809390008091A100826086
:1011B0008093A1008091A10081608093A100809123
:1011C000A00081608093A0008091210182608093C3
:1011D0002101809121018160809321018091200172
:1011E00081608093200180917A00846080937A00EE
:1011F00080917A00826080937A0080917A00816089
:1012000080937A0080917A00806880937A001092AF
:10121000C100E0911503F091160382E08083E09114
:101220001103F09112031082E0911303F091140363
:101230008FEC808310921D03E0911903F0911A0343
:1012400086E08083E0911703F0911803808180612C
:101250008083E0911703F091180380818860808378
:10126000E0911703F0911803808180688083E091FA
:101270001703F091180380818F7D808310920403FF
:101280001092030310920203109201030E94BE0306
:101290008EE791E0909300038093FF028FE791E047
:1012A0009093FE028093FD021092B3038091B803E5
:1012B000823018F098E09093B3038093B60362E312
:1012C00070E080E090E00E9465036091B9038EEACF
:1012D00093E00E94830468EE73E080E090E00E9457
:1012E000650360E38EEA93E00E94C905CBE4D6E48F
:1012F000CE010197F1F760E38EEA93E00E94C90501
:101300002197F1F760E38EEA93E00E94C90583E537
:1013100092E00197F1F760E28EEA93E00E94C9053E
:101320006091B303606240E08EEA93E00E94E205C0
:1013300084E08093B40340E06CE08EEA93E00E9486
:10134000E20540E061E08EEA93E00E94E205CBE333
:10135000DFE1CE010197F1F782E08093B50340E031
:1013600066E08EEA93E00E94E20540E062E08EEAE9
:1013700093E00E94E2052197F1F788E08093B9039A
:1013800060E08EEA93E00E94830480E00E94F90509
:1013900080E392E00E94BC058DE00E94F9058AE39B
:1013A00092E00E94BC05E6E5F2E02491E0E1F2E083
:1013B0008491882399F090E0880F991FFC01EC52EA
:1013C000FE4FA591B491FC01E654FE4F8591949196
:1013D0008FB7F894EC91E22BEC938FBF75E5672EF5
:1013E00072E0772EF3012491CFE0D2E0FE018491E8
:1013F0008823C9F090E0880F991FFC01EC52FE4F42
:10140000A591B491FC01E654FE4F459154913FB72C
:10141000F8949C91822F809598239C93FA01908157
:10142000892380833FBF43E0E42EF12C5FE0C52E8B
:10143000D12C60E088E00E94B402C7010197F1F767
:1014400061E088E00E94B402C6010197F1F760E014
:1014500088E00E94B402F3016491FE018491E82FB8
:10146000F0E0EE0FFF1FE251FE4F8591949100E4F2
:1014700012E42FE030E0462F0E940C086115710540
:101480008105910529F06F5F7F4F8F4F9F4F9F70B0
:1014900096958795779567950E942A0B27EC3BE4F4
:1014A0004BEE51E40E94820A0E94F40A4B018B0128
:1014B0008AE00E94F905B401990C880B990B4AE067
:1014C0000E946E050A30110584F48BE00E94F90534
:1014D0008EE392E00E94BC0568EC70E080E090E052
:1014E0000E9465030E948302A4CF04361105A4F76D
:1014F0008CE00E94F90541E060E28EEA93E00E94F0
:10150000E205EACF0E94960A0C947E0B0E94770BAC
:1015100058F00E94700B40F029F45F3F29F00C94C2
:10152000670B51110C94B20B0C946D0B0E948F0B36
:1015300068F39923B1F3552391F3951B550BBB2702
:10154000AA2762177307840738F09F5F5F4F220F47
:10155000331F441FAA1FA9F335D00E2E3AF0E0E83E
:1015600032D091505040E695001CCAF72BD0FE2F88
:1015700029D0660F771F881FBB1F2617370748071C
:10158000AB07B0E809F0BB0B802DBF01FF279358D4
:101590005F4F3AF09E3F510578F00C94670B0C9426
:1015A000B20B5F3FE4F3983ED4F386957795679549
:1015B000B795F7959F5FC9F7880F911D9695879509
:1015C00097F90895E1E0660F771F881FBB1F621728
:1015D00073078407BA0720F0621B730B840BBA0BE6
:1015E000EE1F88F7E09508950E94FB0A6894B111F8
:1015F0000C94B20B08950E94970B88F09F5798F0B7
:10160000B92F9927B751B0F0E1F0660F771F881F07
:10161000991F1AF0BA95C9F714C0B13091F00E9421
:10162000B10BB1E008950C94B10B672F782F882788
:10163000B85F39F0B93FCCF3869577956795B39548
:10164000D9F73EF490958095709561957F4F8F4FB7
:101650009F4F0895E89409C097FB3EF490958095BC
:10166000709561957F4F8F4F9F4F9923A9F0F92F68
:1016700096E9BB279395F695879577956795B795E6
:10168000F111F8CFFAF4BB0F11F460FF1BC06F5FCC
:101690007F4F8F4F9F4F16C0882311F096E911C0DE
:1016A000772321F09EE8872F762F05C0662371F0FF
:1016B00096E8862F70E060E02AF09A95660F771F13
:1016C000881FDAF7880F9695879597F9089597F907
:1016D0009F6780E870E060E008959FEF80EC0895D8
:1016E00000240A9416161706180609060895002401
:1016F0000A9412161306140605060895092E03947B
:10170000000C11F4882352F0BB0F40F4BF2B11F4EE
:1017100060FF04C06F5F7F4F8F4F9F4F089557FD4D
:101720009058440F551F59F05F3F71F04795880F4F
:1017300097FB991F61F09F3F79F0879508951216E6
:1017400013061406551FF2CF4695F1DF08C0161692
:1017500017061806991FF1CF869571056105089443
:101760000895E894BB2766277727CB0197F908955A
:10177000A1E21A2EAA1BBB1BFD010DC0AA1FBB1F95
:10178000EE1FFF1FA217B307E407F50720F0A21B07
:10179000B30BE40BF50B661F771F881F991F1A9474
:1017A00069F760957095809590959B01AC01BD019E
:1017B000CF010895EE0FFF1F881F8BBF0790F69192
:0817C000E02D1994F894FFCF0D
:1017C8000000000016028001AD016302DE01BC01C9
:1017D800D00100000000540427046B05FD03200419
:1017E8000D04FE0300000000000680016B056A0579
:1017F80044697374616E63653A0020636D0020204C
:021808000000DE
:00000001FF
