:100000000C9462000C948A000C948A000C948A0070
:100010000C948A000C948A000C948A000C948A0038
:100020000C948A000C948A000C948A000C948A0028
:100030000C948A000C948A000C948A000C948A0018
:100040000C943D050C948A000C940B050C94E5046B
:100050000C948A000C948A000C948A000C948A00F8
:100060000C9487050C948A0000000008000201002F
:100070000003040700000000000000000000000072
:10008000250028002B0000000000240027002A0083
:1000900000000000230026002900040404040404D6
:1000A0000404020202020202030303030303010227
:1000B00004081020408001020408102001020408F6
:1000C0001020EB0611241FBECFEFD8E0DEBFCDBF5E
:1000D00011E0A0E0B1E0EAEBF4E102C005900D927E
:1000E000A234B107D9F722E0A2E4B1E001C01D9229
:1000F000AA3BB207E1F710E0C2E6D0E004C02197C6
:10010000FE010E94550AC136D107C9F70E94330784
:100110000C945B0A0C94000008950895AF92BF926E
:10012000CF92DF92EF92FF920F931F93CF93DF93C3
:100130006C017B018B01040F151FEB015E01AE18F2
:10014000BF08C017D10759F06991D601ED91FC9114
:100150000190F081E02DC6010995892B79F7C50141
:10016000DF91CF911F910F91FF90EF90DF90CF9093
:10017000BF90AF900895FC01538D448D252F30E042
:10018000842F90E0821B930B541710F0CF960895A4
:1001900001970895FC01918D828D981761F0A28DD1
:1001A000AE0FBF2FB11D5D968C91928D9F5F9F7397
:1001B000928F90E008958FEF9FEF0895FC01918D4D
:1001C000828D981731F0828DE80FF11D858D90E0BA
:1001D00008958FEF9FEF0895FC01918D228D892F57
:1001E00090E0805C9F4F821B91098F73992708953F
:1001F00085E092E00E94EC0021E0892B09F420E0E8
:10020000822F089580E090E0892B29F00E94F80069
:1002100081110C9400000895FC01A48DA80FB92F42
:10022000B11DA35ABF4F2C91848D90E001968F731E
:100230009927848FA689B7892C93A089B1898C913D
:10024000837080648C93938D848D981306C002888C
:10025000F389E02D80818F7D80830895EF92FF9256
:100260000F931F93CF93DF93EC0181E0888F9B8DD9
:100270008C8D98131AC0E889F989808185FF15C093
:100280009FB7F894EE89FF896083E889F9898081B6
:100290008370806480839FBF81E090E0DF91CF9185
:1002A0001F910F91FF90EF900895F62E0B8D10E0A7
:1002B0000F5F1F4F0F731127E02E8C8D8E110CC016
:1002C0000FB607FCFACFE889F989808185FFF5CF61
:1002D000CE010E940C01F1CFEB8DEC0FFD2FF11D33
:1002E000E35AFF4FF0829FB7F8940B8FEA89FB899E
:1002F00080818062CFCFCF93DF93EC01888D8823FC
:10030000B9F0AA89BB89E889F9898C9185FD03C078
:10031000808186FD0DC00FB607FCF7CF8C9185FF5D
:10032000F2CF808185FFEDCFCE010E940C01E9CF95
:10033000DF91CF91089590E0FC01E859FF4F24919F
:10034000FC01E255FF4F3491FC01E656FF4FE4916A
:10035000EE23C9F0222339F0233001F1A8F4213033
:1003600019F1223029F1F0E0EE0FFF1FE458FF4FA2
:10037000A591B4918FB7F894EC91611126C0309596
:100380003E233C938FBF08952730A9F02830C9F051
:10039000243049F7809180008F7D03C080918000D8
:1003A0008F7780938000DFCF84B58F7784BDDBCFDC
:1003B00084B58F7DFBCF8091B0008F778093B000A4
:1003C000D2CF8091B0008F7DF9CF3E2BDACF3FB7EF
:1003D000F8948091F9019091FA01A091FB01B091FC
:1003E000FC0126B5A89B05C02F3F19F00196A11D61
:1003F000B11D3FBFBA2FA92F982F8827BC01CD016F
:10040000620F711D811D911D42E0660F771F881FCD
:10041000991F4A95D1F708958F929F92AF92BF92FC
:10042000CF92DF92EF92FF924B015C010E94E701B5
:100430006B017C010E94E7016C197D098E099F09FF
:10044000683E734081059105A8F321E0821A910866
:10045000A108B10888EEC80E83E0D81EE11CF11C8B
:1004600081149104A104B10429F7FF90EF90DF906B
:10047000CF90BF90AF909F908F9008952091AA0148
:10048000260F3327331F21323105ECF42091CE01A2
:10049000FC0190E080E0243069F082E00895A091B2
:1004A000AA012191AC0146575E4FA40FB52FB11D93
:1004B0002C930196861798F38091AA01680F609398
:1004C000AA0180E0089581E008951092CE0181E0B4
:1004D0008093D0011092CF0161E082E10E949B01E4
:1004E00061E083E10E949B01E9EBF0E080818E7F77
:1004F000808380818D7F808388E48093B80085E449
:100500008093BC000895CF93DF9391E0909389018D
:100510008823B9F0C091B800D091BA008091BC0096
:100520008A7B8093BC0060E082E10E949B0160E0D6
:1005300083E10E949B010E946502D093BA00C093A0
:10054000B800DF91CF9108950895E0910402809161
:100550000302E81730F4F0E0EC59FE4F808190E0A0
:1005600008958FEF9FEF0895909104028091030208
:100570002FEF3FEF981748F4E92FF0E0EC59FE4FCA
:10058000208130E09F5F90930402C901089580911B
:10059000030290910402891B990B0895CF92DF9278
:1005A000EF92FF920F931F93CF93DF937C01CB01C8
:1005B0008A0120916301222389F0EB016B01C40EB3
:1005C000D51ECC15DD0569F06991D701ED91FC913F
:1005D0000190F081E02DC7010995F3CF642F0E94AF
:1005E0003E02C801DF91CF911F910F91FF90EF90D4
:1005F000DF90CF900895CF93DF931F92CDB7DEB7F2
:100600006983209163012223F9F0209101022032B5
:1006100058F021E030E0FC013383228390E080E059
:100620000F90DF91CF91089580910202E82FF0E0C2
:10063000ED5BFE4F998190838F5F809302028093E0
:10064000010281E090E0ECCF61E0CE0101960E94D2
:100650003E02F7CFCF92DF92EF92FF920F931F935C
:10066000CF93DF93FC01C48121E020936301C09309
:10067000420110920202109201028385682B82EAE5
:1006800092E00E94FB02D0910102D13208F092C0A8
:100690000E94E7016B017C018091CE01811165C050
:1006A00082E08093CE0181E08093D0018FEF809330
:1006B000CD011092F201D093F101A3E4B1E0E1ED9C
:1006C000F1E080E0D81385C01092F3018091F3012E
:1006D000CC0FC82BC093F3018091CF01813009F07A
:1006E0007CC01092CF010E94E7016B017C018091D8
:1006F000F3018093BB008091850190918601A091C8
:100700008701B0918801892B8A2B8B2B99F00E944D
:10071000E7010091850110918601209187013091B8
:1007200088016C197D098E099F090617170728078C
:100730003907E0F18091BC0083FDD9CF85EC80932F
:10074000BC000E94E7016B017C018091CE018230E8
:1007500009F445C08091CD018F3F61F18091CD01B9
:10076000803241F18091CD0125C080918501909129
:100770008601A0918701B0918801892B8A2B8B2B50
:1007800009F48ACF0E94E70100918501109186014A
:1007900020918701309188016C197D098E099F098C
:1007A000061717072807390708F076CF80918401CC
:1007B0000E948302109202021092010210926301C1
:1007C000DF91CF911F910F91FF90EF90DF90CF902D
:1007D00008959D9191938F5F75CF85EEB0CF8091F5
:1007E000850190918601A0918701B0918801892BA4
:1007F0008A2B8B2B09F4A9CF0E94E7010091850178
:100800001091860120918701309188016C197D0932
:100810008E099F09061717072807390708F095CF93
:10082000C5CF089590E080E008958F929F92AF9297
:10083000BF920F931F93CF93DF93CDB7DEB7A197EE
:100840000FB6F894DEBF0FBECDBF19A2423008F438
:100850004AE08E010F5D1F4F842E912CB12CA12CEC
:10086000A50194010E94330AE62FB901CA01EA30BA
:1008700044F5E05DD801EE938D01232B242B252B2D
:1008800079F790E080E0109769F0FD010190002079
:10089000E9F73197AF014A1B5B0BBD018EEA92E08D
:1008A0000E948E00A1960FB6F894DEBF0FBECDBF9A
:1008B000DF91CF911F910F91BF90AF909F908F903C
:1008C0000895E95CD7CFFC0101900020E9F731974A
:1008D000AF01481B590BBC018EEA92E00C948E00CC
:1008E0000F931F93CF938C01C62F0E942A036C2F66
:1008F0006460C8010E942A036C2F6B7FC8010E94AC
:100900002A0383EC90E00197F1F7CF911F910F91AB
:1009100008950F931F93CF93DF938C01D62FC42F8D
:10092000607F642B0E94700480E1D89FB001112485
:100930006C2BC801DF91CF911F910F910C94700423
:10094000682F606840E08EEA92E00C94890441E0F0
:100950000E94890481E090E0089585ED8093BC00B9
:100960008091850190918601A0918701B0918801C5
:100970000796A11DB11D23E0B695A795979587957C
:100980002A95D1F72091BC0024FD03C01092CE011E
:100990000895409185015091860160918701709181
:1009A0008801452B462B472B69F30097A105B1051C
:1009B00041F025E32A95F1F700000197A109B1095B
:1009C000E1CF809184010C9483021F920F920FB6A5
:1009D0000F9211242F933F934F935F936F937F93C5
:1009E0008F939F93AF93BF93EF93FF9385E092E034
:1009F0000E940C01FF91EF91BF91AF919F918F9158
:100A00007F916F915F914F913F912F910F900FBE0A
:100A10000F901F9018951F920F920FB60F921124EE
:100A20002F938F939F93EF93FF93E0911502F09193
:100A300016028081E0911B02F0911C0282FD1BC016
:100A4000908180911E028F5F8F7320911F02821709
:100A500041F0E0911E02F0E0EB5FFD4F958F809337
:100A60001E02FF91EF919F918F912F910F900FBEDA
:100A70000F901F9018958081F4CF1F920F920FB6A0
:100A80000F9211242F933F938F939F93AF93BF9314
:100A90008091F5019091F601A091F701B091F801D4
:100AA0003091F40123E0230F2D3758F50196A11D55
:100AB000B11D2093F4018093F5019093F601A0936A
:100AC000F701B093F8018091F9019091FA01A0919A
:100AD000FB01B091FC010196A11DB11D8093F901AC
:100AE0009093FA01A093FB01B093FC01BF91AF91E9
:100AF0009F918F913F912F910F900FBE0F901F905C
:100B0000189526E8230F0296A11DB11DD2CF1F9282
:100B10000F920FB60F9211242F933F934F935F9331
:100B20006F937F938F939F93AF93BF93EF93FF93B5
:100B30008091B900887F803609F44AC0F0F5883288
:100B400009F4A7C018F5803109F49BC0B8F48823D4
:100B500009F4F9C0883009F494C0FF91EF91BF9176
:100B6000AF919F918F917F916F915F914F913F9145
:100B70002F910F900FBE0F901F901895883109F498
:100B800088C0803251F78093CD0114C0803409F4BD
:100B90009DC040F48033B9F38833F9F68093CD01DA
:100BA00085ECB0C0803509F485C0883509F496C05D
:100BB000883499F60E94AD04D0CF883909F48CC0EE
:100BC00038F5883729F050F4883611F0803729F647
:100BD00083E08093CE011092CC0157C0883809F48D
:100BE0007BC0803919F0803809F0B7CF8091CC01F3
:100BF000803208F071C0E091CC0181E08E0F8093CB
:100C0000CC018091BB00F0E0E455FE4F80833DC0F5
:100C1000803B39F0E0F4803A09F479C0883A09F071
:100C20009CCF84E08093CE011092AB011092AA0178
:100C3000E091FF01F091000209958091AA018111D4
:100C40000FC081E08093AA0110928A0109C0803C04
:100C500009F4A6CF883C09F4A3CF883B09F07DCFE7
:100C6000E091AB0181E08E0F8093AB01F0E0E6579D
:100C7000FE4F80818093BB009091AB018091AA01CF
:100C800029C08091F3018093BB0085EC8093BC0068
:100C900064CF9091F2018091F101981758F5E0919D
:100CA000F20181E08E0F8093F201F0E0EF52FE4FEF
:100CB0008081E9CFE091F20181E08E0F8093F20113
:100CC0008091BB00F0E0EF52FE4F80839091F201E3
:100CD0008091F1019817C8F285E8D8CFE091F20130
:100CE00081E08E0F8093F2018091BB00F0E0EF5223
:100CF000FE4F80838091D00181115CCF81E0809391
:100D0000CF0184EA8093BC001092CE0126CF85ECFF
:100D10008093BC001092CE018091CC01803230F4DF
:100D2000E091CC01F0E0E455FE4F10826091CC01DF
:100D300070E0E091FD01F091FE018CEA91E00995EF
:100D40001092CC010ACF1092CD0134CFCF92DF9216
:100D5000EF92FF920F931F93E82FF92F05C00150D8
:100D600011092109310961F1908196239417B9F392
:100D700005C0015011092109310911F19081962313
:100D80009413F7CFC12CD12CE12CF12C0AC08FEF9A
:100D9000C81AD80AE80AF80A0C151D052E053F05E1
:100DA00079F080818623841791F36C2D7D2D8E2D13
:100DB0009F2D1F910F91FF90EF90DF90CF9008959E
:100DC00060E070E080E090E01F910F91FF90EF9065
:100DD000DF90CF900895E5E0F2E01382128288EE72
:100DE00093E0A0E0B0E084839583A683B78324E0FA
:100DF00031E03183208325EC30E03587248724ECF3
:100E000030E03787268720EC30E0318B208B21ECD7
:100E100030E0338B228B22EC30E0358B248B26ECB8
:100E200030E0378B268B118E128E138E148EE2EAF1
:100E3000F2E01382128284839583A683B78386E1CE
:100E400091E091838083EEEAF2E01382128288E2DD
:100E500091E09183808387E2848380E1818782E0CF
:100E6000828713860895789484B5826084BD84B5A2
:100E7000816084BD85B5826085BD85B5816085BD95
:100E800080916E00816080936E001092810080914D
:100E900081008260809381008091810081608093D5
:100EA0008100809180008160809380008091B100FA
:100EB00084608093B1008091B00081608093B00025
:100EC00080917A00846080937A0080917A008260B9
:100ED00080937A0080917A00816080937A0080917B
:100EE0007A00806880937A001092C100E091150228
:100EF000F091160282E08083E0911102F0911202DB
:100F00001082E0911302F09114028FEC8083109212
:100F10001D02E0911902F0911A0286E08083E091AF
:100F20001702F0911802808180618083E09117029E
:100F3000F0911802808188608083E0911702F0911F
:100F40001802808180688083E0911702F091180276
:100F500080818F7D80831092040210920302109290
:100F60000202109201020E9465028CE890E09093C8
:100F700000028093FF018DE890E09093FE01809342
:100F8000FD011092B3028091B802823018F098E00F
:100F90009093B3028093B60262E370E080E090E049
:100FA0000E940C026091B9028EEA92E00E942A032C
:100FB00068EE73E080E090E00E940C0260E38EEA4D
:100FC00092E00E947004CBE4D6E4CE010197F1F7E1
:100FD00060E38EEA92E00E9470042197F1F760E3EB
:100FE0008EEA92E00E94700483E592E00197F1F7A7
:100FF00060E28EEA92E00E9470046091B302606247
:1010000040E08EEA92E00E94890484E08093B4027A
:1010100040E06CE08EEA92E00E94890440E061E0EA
:101020008EEA92E00E948904CBE3DFE1CE010197D2
:10103000F1F782E08093B50240E066E08EEA92E04C
:101040000E94890440E062E08EEA92E00E948904F6
:101050002197F1F788E08093B90260E08EEA92E090
:101060000E942A0380E00E94A00480E391E00E9495
:1010700063048DE00E94A0048AE391E00E9463046F
:10108000E6EBF0E02491E2EAF0E08491882399F025
:1010900090E0880F991FFC01EA57FF4FA591B4918A
:1010A000FC01E458FF4F859194918FB7F894EC912F
:1010B000E22BEC938FBFE5EB2E2EE0E03E2EF1010C
:1010C0002491F1EA8F2EF0E09F2EF4018491882381
:1010D000C1F090E0880F991FFC01EA57FF4FA591DE
:1010E000B491FC01E458FF4FC591D4913FB7F894F7
:1010F0009C91822F809598239C9398818923888343
:101100003FBF43E0E42EF12C5FE0C52ED12C60E020
:10111000A62E60E0B62E60E088E00E949B01C70129
:101120000197F1F761E088E00E949B01C6010197F9
:10113000F1F760E088E00E949B01F1016491F40105
:101140008491E82FF0E0EE0FFF1FE057FF4F8591ED
:10115000949100E412E42FE030E0462F0E94A606AE
:10116000611571058105910529F06F5F7F4F8F4FE4
:101170009F4F9F7096958795779567950E94A509D3
:1011800027EC3BE44BEE51E40E94FD080E946F09FE
:101190002B01EB018AE00E94A004B201550C880BE0
:1011A000990B4AE00E941504CA30D105CCF48BE0BB
:1011B0000E94A0048EE391E00E94630468EC70E05A
:1011C00080E090E00E940C02A114B10409F4A3CFC6
:1011D0000E94F800882309F49ECF0E9400009BCF54
:1011E000C436D1055CF78CE00E94A00441E060E2C7
:1011F0008EEA92E00E948904E1CF0E9411090C94CA
:10120000F9090E94F20958F00E94EB0940F029F414
:101210005F3F29F00C94E20951110C942D0A0C94B3
:10122000E8090E940A0A68F39923B1F3552391F360
:10123000951B550BBB27AA2762177307840738F045
:101240009F5F5F4F220F331F441FAA1FA9F335D0A2
:101250000E2E3AF0E0E832D091505040E695001C56
:10126000CAF72BD0FE2F29D0660F771F881FBB1F10
:10127000261737074807AB07B0E809F0BB0B802DEE
:10128000BF01FF2793585F4F3AF09E3F510578F01A
:101290000C94E2090C942D0A5F3FE4F3983ED4F3DA
:1012A000869577956795B795F7959F5FC9F7880FEE
:1012B000911D9695879597F90895E1E0660F771F40
:1012C000881FBB1F621773078407BA0720F0621BD1
:1012D000730B840BBA0BEE1F88F7E09508950E94FC
:1012E00076096894B1110C942D0A08950E94120A8F
:1012F00088F09F5798F0B92F9927B751B0F0E1F0D7
:10130000660F771F881F991F1AF0BA95C9F714C086
:10131000B13091F00E942C0AB1E008950C942C0A8F
:10132000672F782F8827B85F39F0B93FCCF38695BF
:1013300077956795B395D9F73EF49095809570951C
:1013400061957F4F8F4F9F4F0895E89409C097FB99
:101350003EF490958095709561957F4F8F4F9F4F8C
:101360009923A9F0F92F96E9BB279395F6958795D0
:1013700077956795B795F111F8CFFAF4BB0F11F493
:1013800060FF1BC06F5F7F4F8F4F9F4F16C088233A
:1013900011F096E911C0772321F09EE8872F762F70
:1013A00005C0662371F096E8862F70E060E02AF0B1
:1013B0009A95660F771F881FDAF7880F969587959D
:1013C00097F9089597F99F6780E870E060E00895C5
:1013D0009FEF80EC089500240A941616170618064D
:1013E0000906089500240A94121613061406050629
:1013F0000895092E0394000C11F4882352F0BB0FBA
:1014000040F4BF2B11F460FF04C06F5F7F4F8F4F1C
:101410009F4F089557FD9058440F551F59F05F3F57
:1014200071F04795880F97FB991F61F09F3F79F006
:1014300087950895121613061406551FF2CF469588
:10144000F1DF08C0161617061806991FF1CF86950A
:101450007105610508940895E894BB2766277727EE
:10146000CB0197F90895A1E21A2EAA1BBB1BFD011F
:101470000DC0AA1FBB1FEE1FFF1FA217B307E40773
:10148000F50720F0A21BB30BE40BF50B661F771FCB
:10149000881F991F1A9469F76095709580959095AB
:1014A0009B01AC01BD01CF010895EE0FFF1F059018
:0A14B000F491E02D0994F894FFCFA9
:1014BA00000000002E018E00BB007B01EC00CA0078
:1014CA00DE0000000000FB02CE021204A402C702E2
:1014DA00B402A50200000000A7048E001204110441
:1014EA0044697374616E63653A0020636D0020205D
:0214FA000000F0
:00000001FF
