:100000000C945C000C946E000C946E000C946E00CA
:100010000C946E000C946E000C946E000C946E00A8
:100020000C946E000C946E000C946E000C946E0098
:100030000C946E000C946E000C946E000C946E0088
:100040000C9484010C946E000C946E000C946E0061
:100050000C946E000C946E000C946E000C946E0068
:100060000C946E000C946E00000000080002010069
:100070000003040700000000000000000000000072
:10008000250028002B0000000000240027002A0083
:10009000040404040404040402020202020203032E
:1000A0000303030301020408102040800102040836
:1000B000102001020408102011241FBECFEFD8E049
:1000C000DEBFCDBF21E0A0E0B1E001C01D92AB30AA
:1000D000B207E1F70E94CE010C9449020C94000093
:1000E000EDEAF0E02491E9E9F0E08491882399F0C9
:1000F00090E0880F991FFC01EA57FF4FA591B4913A
:10010000FC01E458FF4F859194918FB7F894EC91DE
:10011000E22BEC938FBF0895E1E7F0E02491EDEA44
:10012000F0E09491E9E9F0E0E491EE23C9F02223B4
:1001300039F0233001F1A8F4213019F1223029F1EE
:10014000F0E0EE0FFF1FE458FF4FA591B4912FB7D9
:10015000F894EC91811126C090959E239C932FBF1B
:1001600008952730A9F02830C9F0243049F72091AC
:1001700080002F7D03C0209180002F772093800086
:10018000DFCF24B52F7724BDDBCF24B52F7DFBCF68
:100190002091B0002F772093B000D2CF2091B000F3
:1001A0002F7DF9CF9E2BDACFCF93DF93EC010E9406
:1001B0007000209729F480E0DF91CF910C948C009F
:1001C000CF3FD10511F481E0F7CFE1E7F0E0E49112
:1001D000E33029F140F4E130B1F0E230D9F0C03839
:1001E000D1058CF7E8CFE73021F1E83051F1E43068
:1001F000B1F780918000806280938000D0938B0063
:10020000C0938A0004C084B5806884BDC7BDDF91F7
:10021000CF91089584B5806284BDC8BDF8CF809128
:100220008000806880938000D0938900C09388000C
:10023000EECF8091B00080688093B000C093B3008F
:10024000E6CF8091B00080628093B000C093B4008C
:10025000DECF3FB7F8948091050190910601A091FF
:100260000701B091080126B5A89B05C02F3F19F0E2
:100270000196A11DB11D3FBFBA2FA92F982F882726
:10028000BC01CD01620F711D811D911D42E0660F01
:10029000771F881F991F4A95D1F708958F929F92D3
:1002A000AF92BF92CF92DF92EF92FF920E9429010C
:1002B0004B015C0188EEC82E83E0D82EE12CF12C96
:1002C0000E942901681979098A099B09683E7340CF
:1002D00081059105A8F321E0C21AD108E108F108CF
:1002E00088EE880E83E0981EA11CB11CC114D104B5
:1002F000E104F10429F7FF90EF90DF90CF90BF90D9
:10030000AF909F908F9008951F920F920FB60F920B
:1003100011242F933F938F939F93AF93BF9380911B
:10032000010190910201A0910301B091040130916B
:10033000000123E0230F2D3758F50196A11DB11DB3
:10034000209300018093010190930201A093030187
:10035000B09304018091050190910601A0910701DD
:10036000B09108010196A11DB11D809305019093E4
:100370000601A0930701B0930801BF91AF919F912F
:100380008F913F912F910F900FBE0F901F90189556
:1003900026E8230F0296A11DB11DD2CF789484B513
:1003A000826084BD84B5816084BD85B5826085BD71
:1003B00085B5816085BD80916E00816080936E00FF
:1003C00010928100809181008260809381008091F1
:1003D00081008160809381008091800081608093A2
:1003E00080008091B10084608093B1008091B00062
:1003F00081608093B00080917A00846080937A005D
:1004000080917A00826080937A0080917A00816086
:1004100080937A0080917A00806880937A001092AD
:10042000C1000E94700000E010E010920A011092DA
:100430000901C0910901D0910A01CF3FD10509F00E
:100440005CF4CE010E94D4000E944E012596D09308
:100450000A01C0930901EDCF10920A01109209011F
:10046000C0910901D0910A01CF3FD10509F05CF498
:10047000CE010E94D4000E944E012597D0930A011C
:10048000C0930901EDCF0115110579F20E9400001A
:06049000CCCFF894FFCF71
:00000001FF
